:10000000A0240520E912010049410000D512010099
:10001000D5120100D5120100D5120100D512010040
:10002000000000000000000000000000B11301000B
:10003000D51201000000000049130100D512010093
:100040008516000085160000851600008516000044
:100050008516000085160000851600008516000034
:100060008516000085160000851600008516000024
:100070008516000085160000851600008516000014
:1004C80080F0004002E000BF81F0004142001FBF01
:1004D8005FEA410392EA030F7FEA226C7FEA236C0A
:1004E8006AD04FEA1262D2EB1363C1BFD2184140FF
:1004F80048404140B8BF5B42192B88BF704710F095
:10050800004F40F4000020F07F4018BF404211F037
:10051800004F41F4000121F07F4118BF494292EA9F
:10052800030F3FD0A2F1010241FA03FC10EB0C00CB
:10053800C3F1200301FA03F100F0004302D5494258
:1005480060EB4000B0F5000F13D3B0F1807F06D305
:1005580040084FEA310102F10102FE2A51D2B1F1FD
:10056800004F40EBC25008BF20F0010040EA0300F2
:100578007047490040EB0000013A28BFB0F5000F72
:10058800EDD2B0FA80FCACF1080CB2EB0C0200FA28
:100598000CF0AABF00EBC25052421843BCBFD04077
:1005A8001843704792F0000F81F4000106BF80F4F1
:1005B80000000132013BB5E74FEA41037FEA226CB4
:1005C80018BF7FEA236C21D092EA030F04D092F07F
:1005D800000F08BF0846704790EA010F1CBF0020B3
:1005E800704712F07F4F04D1400028BF40F0004010
:1005F800704712F100723CBF00F50000704700F030
:10060800004343F0FE4040F4000070477FEA226256
:1006180016BF08467FEA23630146420206BF5FEA27
:10062800412390EA010F40F4800070474FF0000327
:1006380004E000BF10F0004348BF40425FEA000CEE
:1006480008BF704743F0964301464FF000001CE096
:1006580050EA010208BF70474FF000030AE000BFEC
:1006680050EA010208BF704711F0004302D540422A
:1006780061EB41015FEA010C02BF8446014600209C
:1006880043F0B64308BFA3F18053A3F50003BCFAB7
:100698008CF2083AA3EBC25310DB01FA02FC634464
:1006A80000FA02FCC2F12002BCF1004F20FA02F26B
:1006B80043EB020008BF20F00100704702F120025E
:1006C80001FA02FCC2F1200250EA4C0021FA02F2BF
:1006D80043EB020008BF20EADC7070474FF0FF0CC4
:1006E8001CEAD0521EBF1CEAD15392EA0C0F93EABF
:1006F8000C0F6FD01A4480EA010C400218BF5FEA61
:1007080041211ED04FF0006343EA501043EA5111D3
:10071800A0FB01310CF00040B1F5000F3EBF4900CD
:1007280041EAD3715B0040EA010062F17F02FD2AD1
:100738001DD8B3F1004F40EBC25008BF20F00100B4
:10074800704790F0000F0CF0004C08BF49024CEACB
:10075800502040EA51207F3AC2BFD2F1FF0340EA5D
:10076800C250704740F400004FF00003013A5DDCCE
:1007780012F1190FDCBF00F000407047C2F100020F
:10078800410021FA02F1C2F1200200FA02FC5FEAFC
:10079800310040F1000053EA4C0308BF20EADC7046
:1007A800704792F0000F00F0004C02BF400010F4B8
:1007B800000F013AF9D040EA0C0093F0000F01F065
:1007C800004C02BF490011F4000F013BF9D041EA87
:1007D8000C018FE70CEAD15392EA0C0F18BF93EA89
:1007E8000C0F0AD030F0004C18BF31F0004CD8D1B3
:1007F80080EA010000F00040704790F0000F17BF3A
:1008080090F0004F084691F0000F91F0004F14D07F
:1008180092EA0C0F01D142020FD193EA0C0F03D1D7
:100828004B0218BF084608D180EA010000F00040DA
:1008380040F0FE4040F40000704740F0FE4040F4B5
:10084800400070474FF0FF0C1CEAD0521EBF1CEA54
:10085800D15392EA0C0F93EA0C0F69D0A2EB030272
:1008680080EA010C49024FEA402037D04FF080530C
:1008780043EA111143EA10130CF000408B4238BFD1
:100888005B0042F17D024FF4000C8B4224BF5B1ADF
:1008980040EA0C00B3EB510F24BFA3EB510340EA2D
:1008A8005C00B3EB910F24BFA3EB910340EA9C00DB
:1008B800B3EBD10F24BFA3EBD10340EADC001B014B
:1008C80018BF5FEA1C1CE0D1FD2A3FF650AF8B42EF
:1008D80040EBC25008BF20F0010070470CF0004CFC
:1008E8004CEA50207F32C2BFD2F1FF0340EAC25027
:1008F800704740F400004FF00003013A37E792F0E8
:10090800000F00F0004C02BF400010F4000F013A45
:10091800F9D040EA0C0093F0000F01F0004C02BF40
:10092800490011F4000F013BF9D041EA0C0195E7A9
:100938000CEAD15392EA0C0F08D142027FF47DAF42
:1009480093EA0C0F7FF470AF084676E793EA0C0F32
:1009580004D14B023FF44CAF08466EE730F0004C30
:1009680018BF31F0004CCAD130F000427FF45CAFC0
:1009780031F000437FF43CAF5FE700BF4FF0FF3C2E
:1009880006E000BF4FF0010C02E000BF4FF0010C81
:100998004DF804CD4FEA40024FEA41037FEA226C4A
:1009A80018BF7FEA236C11D001B052EA530C18BF6C
:1009B80090EA010F58BFB2EB030088BFC81738BFD1
:1009C8006FEAE17018BF40F0010070477FEA226CBF
:1009D80002D15FEA402C05D17FEA236CE4D15FEABB
:1009E800412CE1D05DF8040B704700BF84460846EF
:1009F8006146FFE70FB5FFF7C9FF002848BF10F1B0
:100A0800000F0FBD4DF808EDFFF7F4FF0CBF0120F4
:100A180000205DF808FB00BF4DF808EDFFF7EAFF7E
:100A280034BF012000205DF808FB00BF4DF808ED39
:100A3800FFF7E0FF94BF012000205DF808FB00BF2E
:100A48004DF808EDFFF7D2FF94BF012000205DF8B4
:100A580008FB00BF4DF808EDFFF7C8FF34BF0120C1
:100A680000205DF808FB00BF4FEA4002B2F1FE4FDC
:100A78000FD34FF09E03B3EB12620DD94FEA002358
:100A880043F0004310F0004F23FA02F018BF404231
:100A980070474FF00000704712F1610F01D1420218
:100AA80005D110F0004008BF6FF0004070474FF0CC
:100AB8000000704753B94AB9002908BF00281CBF75
:100AC8004FF0FF314FF0FF3000F00CB8ADF1080CDB
:100AD8006DE904CE00F012F8DDF804E0DDE9022348
:100AE80004B07047704700BF10F8012B11F8013BA4
:100AF800012A28BF9A42F7D0D01A70472DE9F0474B
:100B080086468C460846089E154674461946002BAC
:100B180040F0C1808542B2FA82F245D94AB1C2F1A9
:100B2800200300FA02FC954094402EFA03F343EAAE
:100B38000C0C4FEA154EA8B2230CBCFBFEF80EFBBA
:100B480018CC08FB00F943EA0C43994528D9EB185F
:100B580008F1FF3704D2994502D9A8F102072B44BE
:100B6800A3EB0903A4B2B3FBFEFC0EFB1C330CFB86
:100B780000F044EA0344A04214D92C190CF1FF33C5
:100B880004D2A04202D9ACF102032C44241A43EA4D
:100B980007401EB1D440002334607360BDE8F0877D
:100BA8004746DDE76346F1E792BB431B01214FEA65
:100BB800154EAFB2200CB3FBFEFC0EFB1C330CFB36
:100BC80007F840EA0343984561D9EB180CF1FF3068
:100BD80004D2984502D9ACF102002B44A3EB0803D8
:100BE800A4B2B3FBFEFC0EFB1C330CFB07F744EA74
:100BF8000344A7424DD92C190CF1FF3304D2A74264
:100C080002D9ACF102032C44E41B43EA0040C0E7DC
:100C1800C2F120039540944020FA03F12EFA03F321
:100C28004FEA154E9040AFB20343B1FBFEFC0EFBFA
:100C38001C10190C0CFB07F841EA0041884522D921
:100C480069180CF1FF3004D2884502D9ACF10200D2
:100C58002944A1EB08019BB2B1FBFEFC0EFB1C1161
:100C68000CFB07F743EA01439F420ED9EB180CF13E
:100C7800FF3104D29F4202D9ACF102012B44DB1BA5
:100C880041EA004193E76046E3E76146F7E76046DB
:100C9800A4E76346B8E7834206D916B90021084697
:100CA8007CE7C6E900E0F9E7B3FA83F78FB9834236
:100CB80001D3724508D8BEEB020460EB03030120A0
:100CC8009C461EB9002169E73846FAE7C6E9004C98
:100CD800F8E7C7F1200CBB400EFA07F522FA0CF42E
:100CE8002EFA0CF1BA401C4320FA0CF3B8404FEA34
:100CF800144901431FFA84FEB3FBF9F809FB1830C5
:100D08000B0C08FB0EFA43EA00439A4540D9E31856
:100D180008F1FF3004D29A4502D9A8F10200234411
:100D2800A3EB0A0389B2B3FBF9F809FB183308FBF4
:100D38000EFE41EA03418E452CD9611808F1FF33B4
:100D480004D28E4502D9A8F10203214443EA0040A7
:100D5800A1EB0E01A0FB02984145CE46434602D3C3
:100D680006D14D4504D20138B9EB020E68EB0403F5
:100D7800002EA7D0B5EB0E0261EB030101FA0CFCC3
:100D880022FA07F3F9404CEA0303C6E9003199E770
:100D98004046C5E74346D9E72DE9F04FDFF898A16B
:100DA800A3B066480FF0C6FA9AF8014063480FF0FE
:100DB8000FFA63480FF0BEFA0DF17F05022C604868
:100DC80025F01F0500F0AD800FF002FA5C480FF027
:100DD800B1FA002843D19AF8003013F0010600F068
:100DE800B78057480FF0F4F9002838D154480FF06D
:100DF800A1FA002833D19AF800309E0740F1948276
:100E08004F480FF0E5F950BB4D480FF093FA30BB4F
:100E18004B489AF800400FF0DBF900BB47480FF049
:100E280089FAE0B99AF8013023B9E50744BF0223EB
:100E38008AF8013041480FF0CBF980B940480FF0EB
:100E480079FA60B99AF800303D485C075CBF43F016
:100E580004038AF800300FF0BBF9002868D038483E
:100E68000FF068FA9AF80030DFF8D8B0580744BF96
:100E780003F0FB038AF8003099072BD430480FF0B1
:100E8800A7F92E480FF056FA00210422DBF80030AB
:100E98008AF801102C48984728480FF099F92848F3
:100EA8000FF048FA9AF800302548DA0744BF23F0D3
:100EB80001038AF800300FF08BF9002383F31188BF
:100EC800BFF36F8F0423184602DF6FF0040023B0CE
:100ED800BDE8F08F4FF00108032700261B4C04F5EE
:100EE800B069656AC4F82080277735B1A26A22B153
:100EF80000212846DBF8003098472C222046C4E918
:100F080009660021144411F0D3FBA145E9D19AF8F0
:100F180000300E4A23F0020382F880658AF8003018
:100F2800ACE79AF80030072B7FF44EAF0FF050F97A
:100F3800002023B0BDE8F08FACCE0420EC0A0020DE
:100F4800D80A0020F4090020B0CE042028C90420C3
:100F5800774C784A2168914200F09C800FF0F0F9B4
:100F6800754B9E601B605B60744BDFF8D4811B601F
:100F78009E605B6020237349D8F84C20C8F8108025
:100F880081F8593368A1D1E90001C8E90001002AB4
:100F980000F08B80D8F85030B3F5007FCCBF4FF409
:100FA80080634FF40073C8F808304FF0FF324FF0F9
:100FB800FF3365480AF036FF0023644FC8F81080F5
:100FC800C8F86870C8F848300FF0BAF9D8F80020A7
:100FD80002F58051D368DB03FCD44B6A13F4A023D9
:100FE800F8D11E460CF032FF0CF030FF0422584BAB
:100FF800C3F808230FF0DEF9D8F81030C8F84460B9
:101008009F6651480AF0A0FFF823524E52495348B0
:10101800C6F800350CF06CFE002840F0AB80F923D0
:10102800D6F808254C494D48C6F800350CF060FE46
:10103800002840F09F80D6F80835F826454D4649E7
:101048004648C5F800650CF053FE002860D1F92722
:10105800D5F8083540494148C5F800750CF048FEF8
:10106800002855D1D5F808353D493E48C5F80065F2
:101078000CF03EFE00284BD139493A48C5F80075B6
:101088000CF036FE002843D10FF094F9294A9AF85B
:101098000030226043F0010333488AF800300FF033
:1010A80097F800287FF4DBAEA0E6304B01209E695C
:1010B800C6F30B03482B194628BF482116F4003FF6
:1010C800C8F8541008BF0021C8F858100821C8E90A
:1010D8001801F103C8F8503004D400200021134649
:1010E800C8E9140106F47001B1F5700F08BFD8F80B
:1010F8005420002EC8F8542003DA00200021C8E943
:1011080018010122C8F84C2046E719480AF01CFFCC
:101118000FF050F99AF80030134843F001038AF8A9
:1011280000300FF055F89AE6002001500080015079
:10113800F009002011736500580B0020640B002093
:101148002095032000E100E09C0A0020C41405005B
:101158000090055000900450109104500C900450D9
:101168000491045004900450D80A00200020015033
:10117800C40A0020DFF8EC824FF0FF324FF0FF3353
:10118800B9480AF04FFED8E90C3253EA020140F0A0
:10119800D480B64BD8F838209A4200F0EA804FF055
:1011A800FF324FF0FF33B0480AF03CFE43460021BF
:1011B80008F1400203F8011B9342FBD10CAE304604
:1011C80001960FF037F90746A0B930460FF0E6FA56
:1011D8000746002840F0D0803346014618AA03F895
:1011E800011B9342FBD1A14B0122C8F838300023E0
:1011F800C8E90C239C480AF0A7FE38460CF000FD0D
:10120800002882D1D8E90C32023342F10002B3F54A
:10121800803F72F1000280F093802026019FDFF862
:101228005092102EB3464FF0010328BF4FF0100B19
:10123800904A12F8011D0B44914513704FEA13238D
:10124800F7D128460FF0D0F900287FF45EAF2A4680
:1012580007EB0B0C7B1E0CF1FF3012F8011B03F897
:10126800011F9842F9D1D8F8303067460133C8F8E1
:101278003030D8F8343043F10003B6EB0B06C8F829
:101288003430CED130460FF089FA054676480AF058
:101298005BFE002D7FF43CAF0CF06EFDC0BB374603
:1012A8003346324631464FF0010E734D039655F8DA
:1012B800040F10F4807F06D0012207430EFA03F0D2
:1012C800014301F07F010133072BF0D12AB19DF8CA
:1012D8000F3061F347038DF80F30FD4315F4807527
:1012E80040F0F780F821BDF80E30644F23F4F8730E
:1012F80043F0C003ADF80E306148C7F800156149E6
:101308000CF0F6FC002839D16FF08A00D7F80835C0
:101318000021019B0593059B99550136202EFAD192
:1013280000283FF48AAEF3E60121574A43F002034E
:101338008AF8003082F8801562E50CA9019163E70C
:10134800019E30460FF076F800287FF4DEAE304676
:101358000FF024FA014600287FF4D7AE334618AAC6
:1013680003F8011B9342FBD100220023C8E90C2398
:1013780053E70CAB019350E70E273BE7F9234149AC
:101388003F48C7F800350CF0B3FC0028BCD0012357
:101398004FF60201CDE90555CDE907550A953B4DB4
:1013A8000B9109930DF11409C5F80035D5F80034EF
:1013B800DF07FBD5BA2331483549C0F80035C0F8F6
:1013C80004950CF095FC00230746C5F800352F4B13
:1013D800D3F80024D007FBD5002F40D12D4B2B4D3F
:1013E80098460A93039BDFF894B00B93BDF80E3030
:1013F80007F1F80CC3F3C1130993274B6B4443441B
:101408000FCB89E80F000123C5F80035D5F8003463
:10141800D907FBD5CBF800C51D491848CBF804956A
:101428000CF066FC00220346C5F80025D5F8002418
:10143800D207FBD58BB91946CDF81090049AD15430
:1014480001331C2BFAD108F110083FBB4FF0FF33D2
:101458000127CDF828800B93C8E70CF08DFC6FF0BE
:10146800920055E790950320C40A0020B4A5B4A5BE
:10147800B0950320C09503200C1705000090045078
:101488000C9004501091045028C9042000E0045026
:101498000091045000FF07203001F8DF0E4DC5F819
:1014A8000075D5F80034DB07FBD5BA210B4B0C4887
:1014B800C3F800150B490CF01BFC0023C5F80035D8
:1014C800054BD3F80024D707FBD500283FF420AFFD
:1014D800C5E76FF085001BE700E00450009004505A
:1014E800089004500891045038B504690D692046E5
:1014F8002946FFF7AFFA38B929462046FFF78CFA94
:10150800003818BF012038BD4FF0FF3038BD00BF8C
:101518008C4600B5036903F1040EBEE80F00ACE881
:101528000F009EE803008CE8030000205DF804FB30
:10153800014B00204B607047A405002010B483685D
:1015480000EBC10CB3F5004F0CD3DCF80C3099421A
:101558001ED0DCF80810043200EBC10440F8223039
:10156800E3600BE0BCF80630994211D0BCF80410D7
:10157800043200EBC10440F82230E380826800EBBB
:10158800C300B2F5004F2CBF8160818010BC70474A
:1015980001210024C36802F1040C01FA02F223EAD3
:1015A8000203C36040F82C4010BC704770B48668D2
:1015B800541AB6F5004F00EBC1034FEA4405A1EBFE
:1015C80002011FD35E685D6001EB560186684D001D
:1015D800B6F5004F00EBC2032CBF5D605D808568E7
:1015E800B5F5004F2CBF40F8324020F832408468EF
:1015F800B4F5004F0CD370BC5B6802EB530340F8A2
:1016080033107047B3F802C05D8001EB5C01DDE781
:101618005B8870BC02EB530220F83210704700BFA1
:10162800836810B5B3F5004F00EBC10100EBC20CA5
:1016380019D3DCF804304C685B0803EB54035C00F6
:101648004C608168B1F5004F06D3DCF8041002EB5A
:10165800510240F8323010BDBCF8021002EB5102C2
:1016680020F8323010BD4B88BCF802E05B0803EB71
:101678005E034FEA430EA1F802E0E2E708B5EFF394
:101688000583094A103B02EBC30152F8330049684D
:101698008847064B5A699B689A4204D0044A5368A3
:1016A80043F08053536008BDD0170500249B0320E6
:1016B80000ED00E010B5134C0B89D1F800C0D4F848
:1016C80090202CF01F0EC2F3072203F01F0C4B686A
:1016D800013A013B90424989734410D801F007014F
:1016E80023F01F0343EA41034CEA0E0243F00103CF
:1016F800C4F89800C4F89C20C4F8A03010BD6FF05E
:10170800150010BD00ED00E030B4837A0D4A03EBFC
:10171800C30302EB8303DB69D3E901540C60837ACA
:10172800296803EBC30302EB8302136A127DC31A11
:101738001B3222F00302B3FBF2F304FB031030BCAC
:10174800704700BF700B0020704700BF30B50125FF
:101758004FF47A6C4FF4FA20264B274A4FF47A6EEE
:101768001A60264A264BC2F80454D3F82426254C7E
:10177800C2F309430CFB03F3C2F3080282F480723C
:10178800883204FB023342F21C5C1F49AB40A1FBC8
:101798000312D20B00FB12334FF47A70B3F57A3F81
:1017A8001A4B28BF5219C3F80429154B164AD3F807
:1017B8002036C3F30801C3F309430EFB03F381F496
:1017C800807101F217210CFB01331B0AA2FB0312E3
:1017D800920900FB123301210020B3F5FA7F0B4B6D
:1017E80028BF0132C3F81C27C3F80009C3F8001644
:1017F80030BD00BF5C0500200020A107002008E0E4
:1018080000C0FF00F82A0080D34D6210000012507B
:1018180030B44FF6FF740F25134B4FF6FF70C3E932
:10182800024540F6FF744FF6FF756FF07F41C3E93C
:101838000445FF240F250D4AC3E900010C48C3E9FC
:10184800064510600B483F2450600B480325906004
:101858000A483F230260032209490020C1E90245E2
:10186800C1E9002330BC7047788C0320B09A03206C
:101878005C3401004C050020AC340100AC9A032014
:10188800688C0320704700BF03695B68D3E90320B5
:10189800012918BF104670474268037A0261DBB11C
:1018A800012B0CBF02230323427A4375531E032BDB
:1018B80003D8DFE803F0030303030022837A0275E9
:1018C800062B10D0072B09D0052B0CBF00230323B0
:1018D800827E8375C27570470123E5E70223827E05
:1018E8008375C27570470123827E8375C275704700
:1018F80000B5034611F0E2F80B490C4AD1F89010F4
:101908001258914202D000205DF804FB1B6993F83D
:1019180040000028F8D0DB6B5869DA695B6810442E
:10192800C01A5DF804FB00BF388D032008000000D2
:1019380000B5034611F0C2F80649074AD1F89010DD
:10194800125891420ABF1B69002093F838005DF8CD
:1019580004FB00BF388D03200800000000B50346D3
:1019680011F0ACF80A490B4AD1F89010125891427C
:1019780002D000205DF804FB1B6993F840201AB9D7
:1019880093F838005DF804FB01205DF804FB00BF04
:10199800388D0320080000000369C3E90712704767
:1019A8000229036906D004290CD0012906D06FF05A
:1019B800850070471B7E0020136070471B6900205C
:1019C800136070475B7EF6E7F8B500244FF4807724
:1019D80005693022EB6B2146C3E902445C605C6117
:1019E8009C611C616B6B05F14800C3E902445C60B3
:1019F8005C619C611C6110F05BFE094E094B0A4951
:101A08002846C5E92044C5E90B44EB64AC676F651B
:101A1800EE676C62A962FFF73FFF2046F8BD00BF82
:101A2800614B00004D4A0000913500002DE9F0415E
:101A38000446344D344EA368DB6B1BB120469847EF
:101A4800002847D0A3689A6B22B120469047002807
:101A580040D0A368DB691BB1204698470028EAD02C
:101A6800D5E906E72B69A868A3EB0E0CC01AB0F5F8
:101A7800007F28BF4FF40070BC452DD2A7EB0C02A5
:101A8800824228BF02462968134461442B61002A18
:101A980030D0A368DB6823B32046984700281EDDB2
:101AA800D5E904329B1A984209D8AB691044EA690F
:101AB800C11A9142C5E9040024BF9B18AB613046A6
:101AC8000DF022FFA368DB6B002BBBD020469847A4
:101AD8000028B7D1BDE8F081ACEB070CCEE7D5E91B
:101AE80006E76B69A3EB0E02BA422B61F2D3774487
:101AF800AF61EFE7A3689B69002BEBD02046BDE8F8
:101B0800F041184788910320480B002000B5034690
:101B180010F0D4FF1649174AD1F890101258914284
:101B280002D000205DF804FB1B6903F18801D1E8AD
:101B3800AF0FC0F38002400705D5586B0269806873
:101B4800121A18BF012283F83820D1E8AF1FC1F359
:101B5800C002090707D5D96B4A69C86949680244B0
:101B6800521A18BF012283F8402001205DF804FBB7
:101B7800388D03200800000070B5044686680D46BD
:101B8800F36B98472369A033D3E8AF3F98071CD578
:101B980005F00F032906226948BF103352F82310B5
:101BA80081B10B7DDB070DD54B7E03F00303012BC1
:101BB8000ED02046F368984705462046336C984770
:101BC800284670BD6FF01205F7E74FF0FF35F4E7D0
:101BD8006FF08505F1E700BFF0B589B00DF1070496
:101BE80004940DF1060401230226069404AC029421
:101BF8000546032461F07F018DF8071003968DF8E0
:101C0800062005930793071D286886680023394630
:101C1800366802AAB04748B19D2000210DF00EFC9D
:101C2800631E13F0FF04EFD14FF0FF3009B0F0BD91
:101C38000323F0B591B00DF10704089408AC012214
:101C480006940AAC049405461C460DF10F0601F0F3
:101C58007F010A960C960E9605938DF80710099247
:101C680007920B920D920F92071D286886683946D5
:101C7800366804AB06AAB047C0B258B19D2000210F
:101C88000DF0DCFB631E13F0FF04EED14FF0FF30C4
:101C980011B0F0BD9DF80F0011B0F0BD2DE9F84F5F
:101CA800714BD1F804900D469945804607690AD0D2
:101CB80003F1774303F54233F833994503D06B4B6F
:101CC800994540F0AD803E1D18222946304610F057
:101CD800E5FE0446002800F0A080654B1A68002A3B
:101CE80000F09E8000242889B5F80CC005E053F860
:101CF800182F0134002A00F0938059688142F6D1E8
:101D0800D9686145F3D19145F1D14FF0040BD8F86A
:101D180004A007E01BF0FF0B00F08D803F2000219E
:101D28000DF08CFB44215046FFF782FF00F00300C2
:101D380002280BF1FF3BEDD14FF0000B4D4B9945BD
:101D48007FD0494B994500F08480484B994540F035
:101D58008880032220215046FFF73EFF40EA0B0906
:101D68004FF01F0B06E01BF0FF0B67D03F20002150
:101D78000DF064FB44215046FFF75AFF00F00300C2
:101D880002280BF1FF3BEED13B4B4FF0040AA3FBBB
:101D980004235B0803EBC303E41A384BD8F8048028
:101DA8001C5D06E013F0FF0A42D03F2000210DF031
:101DB80045FB44214046FFF73BFF00F003000228A3
:101DC8000AF1FF33EED14FF0000B224621214046A5
:101DD800FFF702FF4FF00B0A044606E01AF0FF0A6D
:101DE80023D03F2000210DF029FB44214046FFF776
:101DF8001FFF00F0030002280AF1FF3AEED144EA7F
:101E08000B0454EA090408D10FCD0FC695E8030066
:101E180086E80300FB685B007B612046BDE8F88F1D
:101E28006FF085042046BDE8F88F4FF0FF34F4E7E3
:101E38004FF0FF3BC9E74FF0FF3B7FE74FF0FF391B
:101E4800A2E7012220215046FFF7C6FE40EA0B090F
:101E580086E7022220215046FFF7BEFE40EA0B0922
:101E68007EE76FF085098FE752474250595559561A
:101E7800A40500204A504547398EE33898050020CC
:101E88000346596B01483C310DF082BCD8900320C1
:101E98002DE9F843046959B394F8985015B1002016
:101EA800BDE8F8830123C4F8945004F1500684F87F
:101EB8009830EFF31187202383F31288BFF36F8FD5
:101EC80040F2AA384FF0000930460CF00FFE00220D
:101ED80000233046C4E91E89C4F8805027490CF015
:101EE80025FD87F31188BFF36F8F0020BDE8F883C5
:101EF80084F8981004F1500528460CF0F7FD0028E6
:101F0800CDD1636F0BB12846984704F168000BF0F8
:101F1800F5FD0028C3D0EFF31185202484F312883F
:101F2800BFF36F8F0CF08EFE85F31188BFF36F8FB0
:101F3800EFF3118384F31288BFF36F8FBBB9EFF30C
:101F48000582A2B90E488168406988420FD06FF0B7
:101F58000A030C48C1F88420C1F88830436843F06C
:101F68008053436082F31188BFF36F8F97E783F341
:101F78001188BFF36F8F0020BDE8F8834DED000096
:101F8800249B032000ED00E010B500690C462C30BE
:101F98000AF0A2F8002820600CBF6FF00A000020A9
:101FA80010BD00BF38B5046904F12C0506E0012214
:101FB800002328460AF090F8014618B9E06A00287C
:101FC800F5D138BD012204F11C000DF0DBFFF5E767
:101FD80008B5006901221C300DF0D4FF002008BDAF
:101FE8002DE9F04707468CB04FF0FF324FF0FF3332
:101FF80020380AF071F8002800F0A480BB6D05466F
:10200800002B48D0DFF8448157F83C3C2C691E6906
:102018005968D6F8943001229C4228BF1C4696F88D
:1020280090300592002B14BF0223012303930993D8
:10203800022307933C23ADF80430AB68CDE90A349A
:1020480001AB0293089302AB049308AB069351F8D3
:10205800040B836804AAD3F8009006ABC84750B9AC
:10206800D6F894301B1BC6F894306C6196F8903003
:102078000BB186F89000394635480DF089FB0122EE
:102088002946D8F80030A7F11000AB610CB0BDE8C4
:10209800F0470DF077BF57F83C3C80225E68072177
:1020A8003046D3F81080FFF797FD0322042130460D
:1020B800FFF792FD45213046FFF7BAFD46218146DC
:1020C8003046FFF7B5FD472182463046FFF7B0FDA1
:1020D80004463F20002124040DF0B0F944EA0A2404
:1020E8002B6944EA0904B4EB430FE3D3D8E904327B
:1020F80002FB03F301221749C8F894300B6088F8F3
:1021080090200BF03FFD4FEA401C4C01BCEB000C4B
:1021180044EAD06464EB01044FEA8C06A40030184A
:1021280044EA9C7441EB0401C90041EA507147F646
:1021380012220023C000FEF7BDFCDFF81080C8F8AB
:10214800000061E70CB0BDE8F08700BF1C9B0320CE
:10215800D8900320209B03202DE9F04F466804699E
:10216800336889B0002B7FD0DB685A78D1077BD5DC
:102178001B78002B78D1337E0546002B6BD1256068
:10218800002704F124036362A362E761276204F174
:102198003403B02239466363A363C548E762276303
:1021A80010F086FA3B464FF48052C249C0480DF001
:1021B800FFFCC14B0022C4E91C3704F16803C4E9E1
:1021C8001A330023C4E91177C4E91423BB4BC4F8BC
:1021D8008070C4F88440E7632364D5F81080D5F88C
:1021E800049098F89830002B47D1402248460721A0
:1021F800FFF7F2FC47F6122000210DF01FF92B69BA
:102208000027D5F80480009306E0B7F5807F30D02A
:102218003F2000210DF012F944214046FFF708FD48
:1022280000F00300022807F10107EED10023019313
:1022380040464021FFF7FCFC10F0870F5FFA80FC56
:1022480012D0ACF18103032B0ED8DFE813F00001A4
:10225800CB00BE005B00F36833B1DB685A78D20765
:1022680002D51B78002B8AD06FF0120009B0BDE8A8
:10227800F08F4FF0FF330193DAE788F8987008F190
:10228800500738460CF032FC0028AED1D8F874302C
:102298000BB13846984708F168000BF02FFC00286E
:1022A800A3D0EFF31188202787F31288BFF36F8F2D
:1022B8000CF0C8FC88F31188BFF36F8FEFF311831C
:1022C80087F31288BFF36F8F002B40F0EC80EFF399
:1022D8000582002A40F0E780794988684969814287
:1022E80000F0E1806FF00A037649C0F88420C0F856
:1022F80088304B6843F080534B6082F31188BFF3FA
:102308006F8F72E74FF0080B6F4FDFF8C081DFF86F
:10231800C0A1B8E80F000FC708EB0B0998E8030045
:1023280008F1200E07F1C80887E80300B9E80F0094
:10233800A8E80F0099E8030007F5D07788E80300BC
:10234800BEE80F000FC79EE8030087E80300009B64
:102358008AF808B0D3F888A0019B8AF81BC0002B24
:1023680070D141213046FFF763FC034603F03F0379
:1023780084F88C3042213046FFF75AFC034603F0BC
:102388000F0384F88D3043213046FFF751FC034694
:1023980003F01F0384F88E3049213046FFF748FCCC
:1023A80006466023C0224B492846039184F88F6073
:1023B80002A9CDE904330692FFF770FC002818BF84
:1023C8006FF0040009B0BDE8F08F3F4FDFF80881D7
:1023D8004FF0090BB8E80F00DFF8F4A00FC708F1B9
:1023E80008099BE7384FDFF8E480DFF8F0B0B8E879
:1023F8000F000FC798E8030008F1080908F1200E3C
:1024080007F1C80887E80300B9E80F00A8E80F003B
:1024180099E8030007F5D07788E80300BEE80F00C5
:102428000FC79EE803004FF00802DA46009B87E8D2
:102438000300C3F888B0264B8AF81BC01A72019BA8
:10244800002B8ED04FF0FF3009B0BDE8F08F1E4F43
:10245800DFF88C80DFF88CB0B8E80F000FC798E879
:10246800030008F1080908F1200E07F1C80887E8F9
:102478000300B9E80F00A8E80F0099E8030007F582
:10248800D07788E80300BEE80F000FC79EE8030076
:102498004FF00902009B87E80300C3F888B00C4B93
:1024A800DA461A7258E783F31188BFF36F8F9CE6F8
:1024B800D8900320A02C0520891E0000E91F0000E9
:1024C800249B032000ED00E064060020082E010094
:1024D8009805002052474250502E01007C050020EC
:1024E800C02D01006005002010B5074CB022002166
:1024F800204610F0DDF800234FF48062204603499F
:102508000DF056FB002010BD388D03206013052008
:10251800836800EBC102B3F5004F0AD20123528849
:10252800DA400132D21AB2FA82F2C2F11F02FFF780
:1025380005B852685208012A01D00223F1E7704712
:1025480030B4846800EBC102B4F5004F22D20125F3
:1025580053885B0801335B1BB3FA83F3C3F11F0392
:1025680000EB830CDCF81050D5B901259D40C368F9
:10257800B4F5004F43EA0503C360CCF810102CBF34
:10258800916091808368B3F5004F2CBFD160D180F2
:1025980030BC704753685B08012BF9D00225D9E796
:1025A800B4F5004F00EBC50C2BBFDCF80830BCF8C5
:1025B800043093609380846800EBC303B4F5004F44
:1025C8002CBFD560D5808268B2F5004F2CBFD9608A
:1025D800D9808368B3F5004F2CBFCCF80810ACF84D
:1025E800041030BC704700BFF8B583680446B3F5E3
:1025F800004F0D464FEAC10600EBC10714D37968B6
:1026080005EB510100EBC1035B68D80736D5A1592A
:10261800691A04EBC1035B68DB0714D52946204619
:10262800BDE8F840FFF78CBF798805EB510100EB56
:10263800C1035B88DA0721D5A15B691A04EBC103E2
:102648005B88DB07EAD42046FFF762FFA3682046D1
:10265800B3F5004F2CBFA159A15B2A46691AFEF7B2
:10266800DFFFA3682046B3F5004F2CBFA359A35B37
:10267800ED1A2946BDE8F840FFF762BF2046FFF78C
:1026880047FFA3682946B3F5004F2CBF7A687A88BC
:10269800204605EB5202FEF7C3FFA368B3F5004FCF
:1026A800B5D2A15B691A04EBC1035B88C9E700BF17
:1026B8002DE9F0418668B6F5004F34BF0B4601F1AD
:1026C800FF33B3FA83F3C3F11F0200EB82073D69BE
:1026D800A5B12C464FF0030CB6F5004F00EBC40E25
:1026E80017D3DEF80480B1EB580F21D9DEF80C407F
:1026F800BCF1010C3C6101D0A542EDD14FF0FF3493
:10270800C268C3F120039C4014400AD12046BDE8AA
:10271800F081BEF80280B1EB580F09D9BEF8064027
:10272800E6E794FAA4F2B2FA82F2131D50F82340B5
:102738002146FEF703FF2046BDE8F0812DE9F84366
:1027480001F1FF39076819EA01090E461446B8680D
:102758007ED0B0F5004F2CBF082204224B420B401C
:1027680093424E46994628BF1346002C00F09E809F
:10277800B0F5004F2CBF08250425F31A04F0070113
:10278800073103F007020A44E1082A4401EBD301A8
:1027980001EBD201814228BF01463846FFF788FF86
:1027A8008046002800F08280BB6809EBC005B3F5BD
:1027B800004F34BF0422082215443D4406F1FF327D
:1027C8001544B5FBF6F534BF6FF003016FF0070150
:1027D80006FB05F5A5EB09052C4407342944C91B5C
:1027E80024F00704E41BB0EBD10F4FEAE4044FEAEE
:1027F800D1061ED3B3F5004F07EBC6080CD2B8F8C4
:10280800023006EB5302944254D343F00103A8F874
:1028180002302846BDE8F883D8F8043006EB5302A6
:10282800944247D343F00103C8F804302846BDE872
:10283800F883414632463846FEF7B8FE4146FFF770
:102848007FFEBB6807EBC608B3F5004FD7D3E3E7B5
:10285800B0F5004F2CBF08230423994285D82AB32A
:1028680002F0070207321344E40804EBD30484425D
:1028780028BF044638462146FFF71AFFB0B1BB68A7
:10288800C500B3F5004F07EBC00625D27388B4EB3B
:10289800530F29D343F001037380BB68B3F5004F8E
:1028A80034BF042308231D443D44B2E700252846CD
:1028B800BDE8F883314622463846FEF777FE2146C2
:1028C800FFF73EFEBB68B3F5004F02D3D8F80430DB
:1028D800A8E7B8F8023098E77368B4EB530F03D34E
:1028E80043F001037360D8E70444014622463846A2
:1028F800FEF75CFE2146FFF723FEBB68B3F5004FE9
:1029080001D27388C6E77368EAE700BF0E4605463A
:10291800114680B51A4610F0D1F804460E4FDFF87C
:102928003C80BB68304644F80830A84754F8080093
:10293800BB68984201D00CF0CDFDEFF30583002B66
:10294800F9D0074B5A6842F080525A605A6A22F40A
:1029580000425A62EFE700BF249B032008000000F2
:1029680000ED00E0EFF30583EFF31183202383F3F9
:102978001288BFF36F8FEFF3118283F31288BFF3CE
:102988006F8FFEE72DE9F041002705468846164679
:1029980007E0414622460FF07EFE361B2744A0443E
:1029A80027D0EC696B696A6823449B1AB34228BF35
:1029B8003346E8682968101A844298BF001B241A15
:1029C8009C4228BF1C46224408446A60002CE0D17F
:1029D800AB68D21A974209D8EA683B44E9696B6048
:1029E800AB609B1A8B4224BF5218EA603846BDE898
:1029F800F0816A68ECE700BF38B5034610F05EF86E
:102A08000E4C0F4DD4F890402858844201D0002035
:102A180038BD1C69EFF31185202383F31288BFF3B7
:102A28006F8FE06BFFF7AEFF85F31188BFF36F8FF1
:102A38000028EDD0012384F8413038BD388D0320BB
:102A4800080000002DE9F04105464FF000080F4648
:102A58001646006909E0A0442FB1384622460FF017
:102A68001AFE28692744361B14D0D5E90634AA680B
:102A7800C31A121AB24228BF3246A34228BF1B1BF0
:102A8800E41A944228BF144629682044194428614E
:102A9800002CE0D16B69C01A804509D8AA69434463
:102AA800E9692B616B619B1A8B4224BF5218AA619A
:102AB8004046BDE8F08100BF38B503460FF0FEFF81
:102AC800094C0A4DD4F890402858844201D000207F
:102AD80038BD1C69606BFFF7B5FF0028F8D00123EB
:102AE80084F8393038BD00BF388D03200800000055
:102AF80010B50469606B026983689A420AD00122A2
:102B0800FFF7A0FF30B104F1780104480CF040FE53
:102B1800002010BD4FF0FF3010BD00BF388D0320DE
:102B280010B503691C694B78212B07D00FF0C6FF3D
:102B38006FF085020E4B1A50002010BD82B1CB8871
:102B4800B2F810C0072B28BF0723D068211D6044A6
:102B58009C44A2F810C01A460FF09DFD002010BD3D
:102B68000FF0ACFF6FF00B02014B1A50002010BDA4
:102B78000C000000F0B50446866885B0F36B0D467E
:102B8800076998472369A033D3E8AF3F98076DD505
:102B98002A7ED4F810C002F00F03110648BF103384
:102BA8005CF8231000295ED00B7DD8075BD553064F
:102BB8000AD02A4620467368984705462046336C53
:102BC8009847284605B0F0BD97F8B030002BF0D0F4
:102BD8006B7ED8072BD597F8B130DBB900230622D6
:102BE80087F8B0308DF80420CDE90254226902F14B
:102BF800A001D1E8AF1FC90738D5AB77EB7785F8C7
:102C0800203085F821302046D2F8983001A998471D
:102C18000546D3E72A8AEB6802F108012982D7F82A
:102C2800A800D7F8AC10985013445960D6E706238B
:102C3800CDE902548DF804300CF1A003D3E8AF3F7E
:102C4800DB0713D54FF0FF336FF06702EB77AA77F6
:102C580085F8203085F821302046DCF8983001A925
:102C680098470546AAE76FF01205A7E74FF0FF352A
:102C7800A4E700BF0B7E5A062ED11A0602D480693B
:102C8800FFF778BF90F86C20530728D430B412F0BF
:102C9800600F056F0C8AC2F341131BD0A3F1010327
:102CA800B3FA83F35B099B0184B1B0F82EC02246C6
:102CB800644528BF6246944508D9B2FBF3F403FB88
:102CC80014221AB94B7E43F008034B76806930BC56
:102CD800FFF750BFEB79E7E76FF0150070474FF04B
:102CE800FF3070478000172840F246812DE9F04FE9
:102CF800884689B0002900F04281CF890B898A8AE9
:102D08008E8903FB02FB07FB06FA0797002E00F0EB
:102D18002F8100221C460692BDF8185098F816908C
:102D28002846FDF787FC98F8173002900193B9F10F
:102D3800000F00F0D180012E00F00881601EFDF721
:102D480079FC0446701EFDF775FC01462046FDF728
:102D580079FD019B04460298002B40F0EB8000218E
:102D6800FDF7B4FB2146FDF7B9FC0EF007FFFDF7B0
:102D78007BFE0246002F00F0A680079B002603FB7F
:102D880005F303933B464F469946B8F81250049210
:102D9800B4B22046FDF74EFCB8F80A300290002F76
:102DA80040D0B9F1010F7AD0581EFDF743FC074611
:102DB80009F1FF30FDF73EFC01463846FDF742FDBC
:102DC800019B07460298002B5DD10021FDF77EFB91
:102DD8003946FDF783FC0EF0D1FEFDF745FE039B57
:102DE8000499E218B8F8143001FB030000217DB102
:102DF800D8F8003001311C56D8F8043058449C5497
:102E0800B8F812508BB29D425244F1D8B8F80E90DF
:102E18000136B3B2994553D998F8173098F8167017
:102E28000193B5E718460593FDF704FC07464846A5
:102E3800FDF700FC01463846FDF704FD019A0746F8
:102E4800059B8AB14FF07C5102980193FDF73EFB38
:102E58003946FDF743FCFDF707FE019B834200DC82
:102E6800581E20EAE070BAE7002102980193FDF7A6
:102E78002DFB3946FDF732FCFDF7F6FD019B834239
:102E8800ADDC581EABE74FF07C51FDF71FFB394610
:102E9800FDF724FC0EF072FEFDF7E6FDE1E71846AB
:102EA800FDF7C8FB019B07460298002BEBD10021D8
:102EB800FDF70CFB3946FDF711FCFDF7D5FD8EE754
:102EC8004F46B8F80C60069B013306939BB29E42AE
:102ED8004ED9B8F808401FE72046FDF7ABFB03467C
:102EE80030460393FDF7A6FB01460398FDF7AAFCBD
:102EF800019B03907BB14FF07C510298FDF7E6FAF5
:102F08000399FDF7EBFBFDF7AFFD844200DC601E83
:102F180020EAE0722EE700210298FDF7D7FA03991C
:102F2800FDF7DCFBFDF7A0FD844202463FF722AF28
:102F3800621E1FE74FF07C51FDF7C8FA2146FDF7E6
:102F4800CDFB0EF01BFEFDF78FFDE1E72046FDF7F8
:102F580071FB019B04460298002BEBD10021FDF781
:102F6800B5FA2146FDF7BAFBFDF77EFD024601E7FB
:102F7800002009B0BDE8F08F4FF0FF3070474FF0E8
:102F8800FF30F6E70EF080BA03691B698833D3E88F
:102F9800EF1F41F00201C3E8E21F002AF7D1704792
:102FA800016901F18803D3E8EF0F40F00800C3E896
:102FB800E20F002AF7D1CA6B5369D06952680344FB
:102FC8009A4200D17047024824310CF0E1BB00BF9F
:102FD800388D032038B5056905F18804D4E8EF3F3A
:102FE80043F00403C4E8E23F002AF7D16B6B1A6987
:102FF8009B689A4204D0084805F124010CF0C8FBEC
:10300800D4E8AF3FDB0600D538BD05F178010248AA
:10301800BDE838400CF0BCBB388D03200FF0F5B983
:103028002DE9F04F884F83B03E78032E00F2CA8016
:1030380068460AF0D7FF0028C0F2C4800124834BF9
:103048009DF800101A6826448C4014433E701C609A
:1030580001210F467E4E94FAA4F3B3FA83F39A0043
:1030680002F5807207FA03F302F1A04024EA030490
:1030780000F5622039B19359002B32DA6FF0150050
:1030880003B0BDE8F08F294608F010FE0021002C9F
:10309800E1D1704AAB0E116805F01F02086850F8BC
:1030A800331000EBC30006790B68DC68AEB100236F
:1030B8000127023303EB83011F2A25FA01F104D00B
:1030C80007FA02F2C4F804250679046801F01F0221
:1030D80054F82310B342CC68EBD3002003B0BDE80A
:1030E800F08F5D4BD3F88030002BC7DBDFF864C16D
:1030F800DCF800305B681B689B68EFF311852022C1
:1031080082F31288BFF36F8F93F80480B8F1000F31
:1031180000F09480D3F800900022A9F1040101E0A6
:10312800424555D051F804EF0132DEF804E0DEF8EC
:1031380000E0BEF1000FF3D16FF00B0285F31188A8
:10314800BFF36F8F002A76D1DCF8002093F804E0F3
:1031580015685D1BED08AD0645F00075BEF1000F62
:1031680028D00022EC46196802EB820851F8229018
:103178001CF8011B99F800A001FA08F8BAF1010F30
:1031880002F1010245EA080512D1D9E902A99CF821
:1031980000801CF802EC01F1200B4EF0004E48F0C4
:1031A8000048603149F82B804AF821E093F804E0A0
:1031B8009645D8D8294608F079FD2946264808F0CA
:1031C80075FD63E7214B1C68002C7FF441AF60E775
:1031D800D9F800204FF0010ED2F80480D8F800206A
:1031E800B2FA82F1C1F11F018DF800100EFA01F157
:1031F80022EA0102C8F800201A7972451ED97246DF
:10320800E846F146196851F822100132D1F804A0B5
:10321800DAF800E0BEFA8EF1C1F11F0108F8011FCB
:1032280009FA01F12EEA0101CAF8001019798A4257
:10323800E8D3002282E76FF00B0021E785F31188BD
:10324800BFF36F8F80E700BF58130520149B03203E
:1032580080200E50AC9A032000E004502DE9F04184
:103268000B7882B0062B2FD0EFF31187202686F338
:103278001288BFF36F8F394C226AE3689A421AD2D8
:10328800D4F80080A04502D0B8F1000F35D1A2686B
:10329800E0690FF000FAE369A16862690B449342A0
:1032A800E36108BF23694FF0000008BFE361236AA8
:1032B8000133236201E06FF0220087F31188BFF326
:1032C8006F8F02B0BDE8F0810369D3F89C20EFF35B
:1032D8001184202383F31288BFF36F8F00204B687B
:1032E8001860506A30B10360536284F31188BFF3E9
:1032F8006F8FB9E713625362F7E7D8E900321360BA
:103308005A6098F80D30002523F00203002288F84F
:103318000D30002308F11800C8E90023C8F8085048
:1033280001910BF0E3FB0199A268D8F810000FF0A7
:10333800B2F9C8F88850EFF3118486F31288BFF306
:103348006F8F40460BF07EFC84F31188BFF36F8FBC
:1033580038460CF0B7FA2846B3E700BF000B002048
:10336800C36983B370B5EFF3118E4FF0200C8CF363
:103378001288BFF36F8F184CE3682BB3A5691E68DA
:103388000135E660A5618EF31188BFF36F8F586031
:103398001972DA60EFF311848CF31288BFF36F8F20
:1033A80000200E4A1860516899B10B60536084F38D
:1033B8001188BFF36F8F0022BDE8704000230849D1
:1033C80008480CF04BBA70478EF31188BFF36F8F23
:1033D80070BD1360EAE700BF580A0020A49A0320D2
:1033E800A00000202890032070B50069056905F148
:1033F8008804D4E8EF3F43F00103C4E8E23F002A21
:10340800F7D1D4E8AF3F5A0712D4EB6B1A699B681F
:103418009A4208D005F148010022BDE87040002317
:1034280008480CF01BBAD4E8AF3F1B0703D470BDA3
:10343800FFF7D0FDE9E705F124010248BDE8704037
:103448000CF0A6B9388D032070B54C780569202C8E
:103458004668286940D0222C41D14B88C3F34002EA
:10346800838103F0010302764376F369002B31D0A0
:10347800EFF31184202080F31288BFF36F8F3D4A49
:10348800D368002B67D09169D3F800C00131C2F826
:103498000CC0916184F31188BFF36F8F09225E60BD
:1034A800DD601A72EFF3118480F31288BFF36F8F17
:1034B8000020314A18605168002956D00B605360CB
:1034C80084F31188BFF36F8F002200232B492C4807
:1034D8000CF0C4F9002070BDCB88072B07D00FF083
:1034E800EDFA6FF08502274B1A50002070BDD368A3
:1034F8001A6842609A889B7902818372FEF7CCF938
:10350800F369002BE6D0EFF3118084F31288BFF340
:103518006F8F184AD3681BB39169D3F800C0013183
:10352800C2F80CC0916180F31188BFF36F8F082235
:103538005E60DD601A72EFF3118584F31288BFF3C1
:103548006F8F00200C4A1860516881B10B6053607E
:1035580085F31188B6E784F31188BFF36F8FB9E755
:1035680080F31188BFF36F8FB4E71360A7E7136088
:10357800EDE700BF580A0020A49A0320A00000200D
:10358800289003200C00000038B550F8242C50F87F
:10359800083C52681268002B2ED00023044600F124
:1035A800640583828383D5E8AF3F5B072FD554E951
:1035B800023110699847637DFBB9D5E8AF3F99069A
:1035C80006D4637F002B36D114F8093C002B32D186
:1035D800D5E8AF3F5A0704D523691A699B689A4210
:1035E8001AD1D5E8AF3F1B0706D5A2695369D1693F
:1035F80052680B449A4218D138BD04F1540114485A
:103608000CF0C6F8D5E8AF3F9906E1D4D9E7D5E87C
:10361800AF3F1807CBD4CEE721460D480CF0B8F8D9
:10362800D5E8AF3F1B07E7D5DFE72146BDE83840BF
:1036380007480CF0ADB80022002304F12401044827
:103648000CF00CF9D5E8AF3F5A07CAD5C4E700BF5C
:10365800388D032070B582B0202604698DF80710D4
:1036680008E0EFF3058303BBA37EF3B1202000211C
:103678000BF0E4FEEFF3118586F31288BFF36F8F2A
:103688000122E06B0DF10701FFF77CF985F3118842
:10369800BFF36F8F0128E4D12022002304F14801F1
:1036A80007480CF0DBF802B070BD0122054BD3E8E7
:1036B800EF1F0029F0D1C3E8E02F0028ECD0F6E78F
:1036C800388D0320A09A032030B587B000246FF00E
:1036D80007054FF48062CDE90354CDE90144174B47
:1036E8001749009417480AF061FD16480CF040FA93
:1036F800154B164883420CD2214603F11402D2E836
:10370800EF4FC2E8EC1FBCF1000FF8D11833834229
:10371800F3D30F4B0F498B420CD2002003F1140254
:10372800D2E8EF4FC2E8EC0FBCF1000FF8D1183324
:103738008B42F3D3002007B030BD00BFC556000050
:1037480060170520E88D0320340C00204C0C002065
:103758004C0C0020640C00202DE9F043064683B091
:10376800EFF31181202383F31288BFF36F8F4C4D41
:103778002A6881F31188BFF36F8F526892F86C2022
:10378800D10737D5EFF3118283F31288BFF36F8F18
:103798002C68002C53D0696823688C422B6008BFC2
:1037A8006B6082F31188BFF36F8F606804F10801C2
:1037B800C3699847EFF311894FF0200888F31288FE
:1037C800BFF36F8F374BDF68002F3DD027609A69B2
:1037D800DC60013A9A6189F31188BFF36F8F2B6817
:1037E8002BB30022002331462F4803B0BDE8F04335
:1037F8000CF034B8EFF3118583F31288BFF36F8FA1
:10380800C26800F1100422F008031207C36011D443
:10381800254A43F00803F360B262204620220023C1
:1038280022490BF083F885F31188BFF36F8F03B03B
:10383800BDE8F08320460BF059F9F368E8E782F316
:103848001188BFF36F8FCAE719689942BED0002963
:10385800BCD0D1E9003213605A604B7B002223F0C0
:1038680002034B7300238F60C1E9002301F11800A4
:1038780001910BF03BF90199C1F888700C61EFF3E5
:10388800118488F31288BFF36F8F08460BF0DAF9BA
:1038980084F31188BFF36F8F48460CF013F89EE746
:1038A800A49A0320580A00202890032019F8000041
:1038B80003691B698833D3E8EF2F22F00102C3E8BC
:1038C800E12F0029F7D1D3E8EF1F21F00201C3E867
:1038D800E21F002AF7D1704703691B698833D3E8D0
:1038E800EF1F21F00201C3E8E21F002AF7D1704759
:1038F80003698833D3E8EF1F21F00801C3E8E21F0A
:10390800002AF7D1704700BF03698833D3E8EF1F57
:1039180021F00401C3E8E21F002AF7D1704700BF75
:10392800F8B5144687680546FB6B0E46984721464E
:103938000022002305480CF095FB044600B10676EA
:1039480028463B6C98472046F8BD00BF940B0020E2
:1039580038B50C46817A094D01EBC10105EB8105AB
:10396800E9694868216801F1030C2CF00301216022
:103978000BF078FB00B138BD206038BD700B00201B
:10398800837A044A03EBC30302EB8302D3695868C2
:1039980008F0F0B9700B002010B50446006808F074
:1039A8008FF820B12046BDE810400AF0E3BC6FF064
:1039B800120010BD2DE9F84F064608469046994674
:1039C800FCF734FE0446012000FA08F0FCF72EFE4E
:1039D80001462046FCF736FF00254FF0000A4FF05D
:1039E8007E578046043E14E018460EF0EBF8394640
:1039F800FCF76CFD01463846FCF724FF46F8040F37
:103A080020460EF0DFF80135B5F5807FC6F80004D2
:103A18001BD068B2A0EB0900FCF70CFE4146FCF78E
:103A28005DFE51460446FDF70BF804F100430028FB
:103A3800DAD120460EF0C6F839468346FCF746FD33
:103A480001465846FCF7FEFED8E7BDE8F88F00BFF0
:103A58002DE9F047A1B106460D460024104FDFF8C6
:103A68004480DFF844A0DFF84490D7E8AF0F2A1B62
:103A7800311948B14046FEF785FF0444A54205D8F0
:103A88000948FFF78DFA0120BDE8F0875046FFF797
:103A980087FA40F23912002348460BF08FFAE4E720
:103AA800449B032088910320242C0100480B00200C
:103AB800E1B100688368B3F5004F0BD20439091AE5
:103AC80021F0070303445A88C90822F001025A80EA
:103AD800FEF78ABD0839091A21F0070303445A681A
:103AE800C90822F001025A60FEF77EBD704700BF88
:103AF800B2F5802FF8B52CBF08240424151B0D44FB
:103B0800073121F0070425F007052D1BEF08B5F54F
:103B1800802F34BF3A4607F1FF32B2FA82F200230F
:103B2800C2F12406B6000736C2F120020460F60886
:103B38000021C4E90273920004F110000EF0B8FDF0
:103B48007300BA1BB5F5802F4FEA420004EBC6019B
:103B580043F001032AD36360002323604860A3680D
:103B6800B3F5004F2CBF44F8366024F83660A168DE
:103B78006319B1F5004F4FF000012CBF596059800F
:103B8800A368B3F5004F2CBF62516253A26804EBDF
:103B9800C703B2F5004F0ED35A68314642F001020E
:103BA8005A602046BDE8F840FEF7CABC638000238F
:103BB80023804880D3E75A88314642F001025A8070
:103BC8002046BDE8F840FEF7BBBC00BF08B5054974
:103BD800054A21F007010548521AFFF789FF00201E
:103BE80008BD00BFF78E052000FC0720BC9A032003
:103BF8002DE9F84FB0F818C005461CF0080940F048
:103C08000F810CF00700034602299BB211D06E69A0
:103C1800002EC0F2F180591F01291F4640F2CD80C5
:103C2800042B00F023819842964657D04FF00008A5
:103C380017E0002B40F084802968002900F0848078
:103C48002CF0070C29694CF0060C1FFA8CFC06288E
:103C5800D1F800809646A5F818C000F08C801E4662
:103C68000627AB680024002B00F085804CF0080C78
:103C7800A5F818C082F31188BFF36F8FA968B1B196
:103C8800D1F800A03A465346A2461C462846334679
:103C9800D1F804B0D8474CB12146246833463A4697
:103CA8002846D1F804B0D847002CF5D1544644BB77
:103CB800B8F1000F02D028467949C047EFF3118EBA
:103CC800202383F31288BFF36F8F7246B5F818C0AC
:103CD8002CF0080C1FFA8CFCA5F818C01CF0100F6B
:103CE80025D001212CF0100C1FFA8CFC0CF00703D6
:103CF8001846A5F818C087E7C4F808905446002C61
:103D0800D6D0A268D4F800A002F00302032AE66025
:103D1800F2D1D4F804B0C4F80890BBF1000FEDD08C
:103D2800214633463A462846D8475446E7E71CF02A
:103D3800200F0AD02CF0200C02211FFA8CFCD5E7AA
:103D4800022B24D16E8B36B196468EF31188BFF3C1
:103D58006F8FBDE8F88F2CF0070C2B694CF0040C22
:103D68001FFA8CFC0428D3F804809646A5F818C0DE
:103D780001D0042775E7B8F1000FAFD04CF0080C5C
:103D8800A5F818C082F31188BFF36F8F93E7012B52
:103D9800DAD12B68002BD7D02CF0070C2B694CF00C
:103DA800050C1FFA8CFC0528D3F808809646A5F860
:103DB80018C0E0D00527002653E700272CF0070C91
:103DC800062B2C681FFA8CFC6F602F6037D0B84226
:103DD8009646A5F818C01DD1002C3FF47FAF4CF0D3
:103DE800080CA5F818C082F31188BFF36F8F4FF045
:103DF8000008002C85D15BE7002301272CF0070C75
:103E08004CF0010C2C68A5F818C02B606B60B84208
:103E18009646E1D0AB68002BDED04FF0000825E7CE
:103E280001290CBF4CF0100C4CF0200C9646A0F861
:103E380018C08EF31188BFF36F8FBDE8F88F3CB1BF
:103E480021466B8B01339BB26B8309680029F9D13A
:103E5800698B4CF002032B8311B19C460227D6E7ED
:103E68004CF0220C0227A5F818C0D0E72CF0070C5C
:103E78002F681FFA8CFCA5F818C057B14CF0200C1D
:103E88009646A5F818C000283FF428AF0027B84682
:103E9800E7E6964600283FF421AFB846E1E600BFC2
:103EA800AD3E000010B40C46EFF31182202181F3DF
:103EB8001288BFF36F8F0121446110BCFFF798BED1
:103EC80010B5EFF31182202181F31288BFF36F8FB1
:103ED800048B04F00704022C0AD0012C0CBF6FF0ED
:103EE80004006FF0850082F31188BFF36F8F10BD57
:103EF800418B013989B2418309B12046F3E7214654
:103F0800FFF776FE204610BD704700BFEFF3118023
:103F1800202383F31288BFF36F8F08498B6833B16E
:103F2800013B8B6080F31188BFF36F8F70474FF0B0
:103F3800FF324FF0FF330AF0DDBF00BF380B00201F
:103F480001480BF0E1BC00BF380B00200FB482B071
:103F580003AB019302B004B0704700BFEFF31180C8
:103F6800202383F31288BFF36F8F704780F3118883
:103F7800BFF36F8F704700BF164A1749D2F8003455
:103F880023F00103C2F800340B68202B0BD0012268
:103F9800124902FA03F3D1E8EF2F1A43C1E8E02FE0
:103FA8000028F8D17047EFF3118183F31288BFF32B
:103FB8006F8F0B4A1368013B136033B9094AD2F873
:103FC800183523F00303C2F8183581F31188BFF3BD
:103FD8006F8F704700600550189B0320149B0320C7
:103FE800109B032000E0045070B50C4605460EF007
:103FF80004F8FFF7C1FF28462346BDE870400021BA
:10400800184700BF014902480BF0C2BB009B0320C0
:104018002890032030B50EF051FD144D144C2B5848
:10402800226885B09A421ED0226822B1114AD2F87D
:104038009020934217D00023012269460E4803932B
:10404800019302920AF022F9029B9B07FCD1039B81
:104058004FF0FF334FF0FF3208480AF0AFFF0EF081
:104068002DFD2B582360012005B030BD080000004D
:10407800FC9A032028900320E09A0320280B0020B4
:1040880008B50B48FFF71CFF0EF0CCF930B9094B07
:1040980018600948BDE808400BF036BC074A054BD4
:1040A800D2F890201A60BDE808400EF0D3B900BFDE
:1040B800E09A0320FC9A0320280B00202890032074
:1040C800002208B5114B1A60EFF31182202383F305
:1040D8001288BFF36F8F0E48018B01F00701022988
:1040E80004D1438B013B9BB2438343B182F31188D4
:1040F800BFF36F8FBDE8084006480BF005BCFFF71B
:1041080077FDBDE8084003480BF0FEBBFC9A03208E
:10411800E09A0320280B00200368012B01D1EFF35C
:104128000583EFF31183202383F31288BFF36F8F86
:10413800EFF3118283F31288BFF36F8FFEE700BF9E
:1041480008B50DF0BFF8054B5A699B689A4204D030
:10415800034A536843F08053536008BD249B0320EF
:1041680000ED00E070B5614B4FF0000C5B688AB061
:10417800C3F308038CF31188BFF36F8F02F07F44F9
:10418800B4F17F4F40F0878002F00C04082C00F057
:104198008280120747BF0C46654604460125002267
:1041A800033B8DF80720032B00F28280DFE803F041
:1041B80042392D0209F050FF064620686168A2685E
:1041C800E3680DF1080CACE80F0020696169A26989
:1041D800E369ACE80F00002D60D0C3F3080240F299
:1041E800FF11002A61D0012E01D1EFF30583EFF30F
:1041F8001183202383F31288BFF36F8FEFF31182AB
:1042080083F31288BFF36F8FFEE700200DF10701DB
:1042180009F054FF06469DF80730002BCDD00AB0B0
:1042280070BD00200DF1070109F080FF9DF80730EF
:104238000646F2E72D4BDE6A16F0020638D1DA6A36
:10424800002ABADBDE6A16F08046B6D05A69A16940
:1042580042F480725A61BFF34F8FBFF36F8F5A6970
:1042680031F8021C22F480725A61BFF34F8FBFF3FA
:104278006F8F4DF6027291421CD09A6AD2B2EAB997
:104288009E6A16F47F4628D19B6AB3F5803F1ED2FA
:104298009DF80730C1E76546644680E7099B23F42B
:1042A800FF7323F0010309939DE70B4309939AE7F2
:1042B800002682E726689DF80730AEE701200DF159
:1042C800070109F033FF9DF807300646A5E709F016
:1042D800C3FE9DF8073006469FE701200DF1070150
:1042E80009F0ECFE9DF80730064696E700ED00E081
:1042F80072B6002383F31388154AD2F8900010F49D
:104308007F4FC0F3072107D01846C2F89830013311
:104318009942C2F8A000F8D100234FF0FF300D49B0
:1043280003F120020133102B41F82200F8D10023B9
:104338004FF0FF30074903F160020133102B41F8B9
:104348002200F8D162B6BFF34F8FBFF36F8F70476B
:1043580000ED00E000E100E02DE98048C24AC34BCF
:1043680022F07F0287B09A60BFF34F8FBFF36F8F41
:10437800D3F88840BE48BF4A24F47004C3F8884084
:104388000021121A0EF094F9BB48BC4ABC49121A13
:104398000EF081F9BB48BC4ABC49121A0EF07BF9F1
:1043A80000232020BA49CA180133B3F5917F82F857
:1043B8000003F8D1002007F0AFFCB64B03F5006509
:1043C80085F3088883F30A880020E02210244FF040
:1043D800FF31A64B83F82220D8771876587698763E
:1043E80083F820005A6A42F4E0225A6283F82300D4
:1043F8005A6922435A615A6942F480625A615A6979
:1044080022F008025A611C619962D962D3F890209F
:10441800120A12F0FE0F00F0B581BFF35F8F9E4ABB
:10442800C3F894004FF0060EC3F8C02001270222FB
:104438009A49DFF86CC29B4C9B4EC3F89800C3F8AE
:104448009CE0C3F8A0C0C3F89870C3F89C40C3F8B8
:10445800A0103270D3F89010C1F3072191420AD905
:10446800C3F89820C3F8A000D3F890100132C1F324
:1044780007218A42F4DB05227C4BC3F89420BFF362
:104488004F8FBFF36F8F894A307857680446DFF83B
:10449800208227B11F2F00F2A1806FF01504854BF1
:1044A8003470984530D043E800F3DA03D9B240F1CC
:1044B8005581814B43E800F3DAB2DB0340F14E81CA
:1044C800914240F04B8132787C4B914219601BDA63
:1044D800664AC2F89810C2F89810D2F89C10187B57
:1044E80061F30400D2F8A01018734908C0B261F350
:1044F8004710D2F89C10D2F8A02021F01F0122F01A
:104508001F02187359601A614FF00108002640F223
:1045180001126B4B6B4C40466B4FA3601E679A8130
:104528005E67DE67DFF8A49107F0F6FB022007F06C
:10453800F3FB04F11803CDE90368CDE901660096A1
:104548004FF40062C4E9063338464B466049676158
:1045580009F02CFE7B7B824623F004037B73EFF388
:10456800118B202383F31288BFF36F8F38460AF02C
:1045780069FB8BF31188BFF36F8F0F23CDF8108081
:10458800DFF8508103934FF4A0724046CDE90166ED
:10459800514B5249009409F009FE98F80D30504AE1
:1045A800D7F8801023F0040388F80D30267465606E
:1045B800C4E902783B6F116083F30B884C468AF399
:1045C80009880020034B9847204600210022002339
:1045D800014C2047B547000015290000F9067FF473
:1045E8005CAF1268D3067FF458AF42E800F15FFA77
:1045F80081FAC9037FF551AF174407F1FF3B4BE838
:1046080000F3D9B2DB037FF548AF51457FF445AFDE
:1046180050457FF742AF154BC3F898A0D3F89C10CC
:10462800C3F898A0D3F8A09021F01F03934249F053
:104638001F0900F09880531ED94523F01F0351D15C
:104648000A49C1F898A0D1F8A02002F01F0213432C
:10465800C1F8A0301549FDF72DF810F1160F0446E2
:104668003FF41BAF01341AE70000000000ED00E042
:10467800680C00206013052000000020640C002056
:10468800E02005000000002000000020E0200500D8
:1046980000E100E0A0240520AAFF4400E3FB072076
:1046A800E14F1E0001000020591305202C350100A0
:1046B80000FC0720680C0020FFFB0720C89A032095
:1046C800988F0320249B0320088F032025D3000004
:1046D800A01C0520788E0320A1830000601B052004
:1046E800DC9A03202B4C2C49C4F898A0D4F8A020BD
:1046F80002F01F021343C4F8A030FCF7DBFF10F1EF
:10470800160F03463FF4C9AEC4F898A00133D4F895
:104718009C00D9B2D4F8A030D4F890C027F01F0775
:1047280009F1FF32CCF3072C3A440CF1FF3CA2EB21
:104738000B02614522F01F023FF6AFAE03F00E03F5
:10474800134300F01F023A4343F00103C4F89810E2
:10475800C4F89C20C4F8A0304C1CA0E66FF01502E9
:104768000E4B1A60D0E6D9450ED00A4A27F01F072B
:10477800C2F898A0D2F89C3003F01F033B43C2F85C
:104788009C3067E7064E7EE650460349FCF792FFE9
:1047980085E600BF00ED00E02C350100C89A032033
:1047A80059130520036F83F30B88704761B662B60F
:1047B80080F31188BFF36F8F704700BF002831D096
:1047C800F0B504460026184D83B02046027A646886
:1047D800531EDBB26AB103725BB9877AC36007EB19
:1047E800C702436005EB82039A6922B19047002C07
:1047F800EBD103B0F0BD416949B1427AD20705D483
:10480800DB6901901B689B6898470198466107EB34
:10481800C7070146002205EB87000BF0B3FB002C0D
:10482800D3D1E6E7704700BF700B002038B50022EF
:10483800054680218069FFF773F898B10446437EE6
:10484800014623F0070343F0040328466376FEF786
:1048580011FA054608B9284638BD2046FFF7AEFFCD
:10486800284638BD6FF00B05284638BDF8B50D460B
:10487800D0F810C04668DCF8043096F86C1004468E
:10488800DCF810709868C1F341112B7E002A4ED1D4
:10489800012962D090F83D209A4262D090F83620E3
:1048A8009A4213D0DCF80420926892F826209A42A3
:1048B80038D0B469A6682046F36B98472846FFF7B6
:1048C8007DFF2046336C98470020F8BDFB6923B173
:1048D8005B4807F124010AF05BFF07F18803D3E87E
:1048E800EF1F21F02001C3E8E21F002AF7D1FB6B7C
:1048F8001A699B689A4206D000220023504807F1A3
:1049080048010AF0ABFF6168226991F86C1052689F
:10491800C1F3411101292B7E9268C6D192F8442037
:104928009A42C6D107F18C000AF0EEFFC1E70129CF
:1049380049D090F83D209A4269D090F836209A42A2
:104948004FD0DCF80420926892F826209A42B0D121
:1049580007F18C000BF0BCF8ABE790F852209A42B4
:1049680029D12A8AE968786BFEF70CF830B1FB691F
:1049780023B1334807F124010AF00AFF07F188033D
:10498800D3E8EF1F21F01001C3E8E21F002AF7D196
:1049980007F178012A480AF0FBFE6268D4F810C0D3
:1049A80092F86C20DCF80410C2F34112012A2B7E25
:1049B80088687FF473AF90F84B209A4286D0DCF871
:1049C80004209268AAE790F852209A421FD090F8E3
:1049D8004B209A4205D0DCF80420926892F84420D3
:1049E800B4E707F18803D3E8EF1F21F02001C3E8FB
:1049F800E21F002AF7D16168226991F86C105268A9
:104A0800C1F3411101292B7E92689DD1E6E707F198
:104A18008803D3E8EF1F21F01001C3E8E21F002A42
:104A2800F7D16268D4F810C092F86C20DCF8041052
:104A3800C2F34112012A2B7E88687FF47EAFC6E755
:104A4800388D03202DE9F04750F8483C00F1400527
:104A58005B681E68D5E8AF3FDC0701D4BDE8F08786
:104A68000446D5E8AF3F9807C3F34008F6D4D5E825
:104A7800EF3F43F02002C5E8E12F0029F7D199065E
:104A8800ECD4336932485B689A68736893F86C3081
:104A9800C3F34113012BC3690CBF92F84B9092F8F2
:104AA80036909968002200230BF0DCFA074630B3F1
:104AB80080F81890428AC16854F80C0CFDF7C2FFC0
:104AC8003B8A03443B8278BB04F82D8C97F9182065
:104AD8007368002A23DBC7F81A6039469869FEF71D
:104AE80049F80028BAD03846FFF768FED5E8EF3F06
:104AF80023F02003C5E8E23F002AAFD0F6E7D5E867
:104B0800EF3F23F02003C5E8E23F002AF7D1214612
:104B1800BDE8F047202200230E480AF09FBE93F814
:104B28006C205207D7D5DEE7736893F86C30C3F36F
:104B38004113012B0CBF4FF400734023B0FBF3F279
:104B480003FB1200B0FA80F84FEA5818BCE700BF20
:104B5800700B0020388D032070B550F8782C00F1C8
:104B6800100352681468D3E8AF2FD60700D470BD7D
:104B7800D3E8AF2F9507FAD450F8441C4A69CD6999
:104B8800486861682A4491F86C10121AC1F34111FF
:104B980001290CBF4FF4007140219142E7D8D3E8B6
:104BA800EF2F42F01001C3E8E01F0028F7D1D0062C
:104BB800DDD46368226993F86C3052681B48C3F3EC
:104BC80041139268012BC3690CBF92F8526092F8A6
:104BD8003D609968002200230BF044FA054600283E
:104BE800C5D006766368428A93F86C30C3F34113E4
:104BF800012B0CBF4FF4007340239A4288BF9AB22E
:104C08004282310663680CD4C5F81A40294698696F
:104C1800FDF7B0FF0028AAD02846BDE87040FFF78E
:104C2800CDBD93F86C205207EED5F5E7700B002048
:104C38004029F8B500F092801ED801391F2917D8ED
:104C48001F2915D8DFE801F08614141414141484ED
:104C58001414141414141488141414141414141498
:104C6800141414141414148C802908BF10230BD0A6
:104C78006FF015052846F8BDB1F5807F66D0B1F50F
:104C8800007F08BF4023EFD10169CD89002A50D1A8
:104C980025EA0305CD810669426806F1880317688D
:104CA800D3E8AF2FD0075DD5D3E8AF3F990759D4E4
:104CB8003B697A685B689069996892F86C300A2257
:104CC800C3F34113012B0CBF91F8441091F826103F
:104CD800FEF726FE0446002847D042F2A10C028ABD
:104CE80002210020E36802F10A0EA4F810E023F87C
:104CF80002C01344C3F80200D9801D8194F918201A
:104D08007B68824217DBC4F81A7021469869FDF760
:104D180031FF0546A8B94FF0FF324FF0FF3306F1D7
:104D28008C000AF04BF90B3008BF6FF08B05284652
:104D3800F8BD1D43AEE793F86C205207E3D54FF05A
:104D4800FF352046FFF73AFD2846F8BD20239BE7AC
:104D5800012399E700258DE7022395E7082393E7C8
:104D6800042391E76FF00C0584E76FF00B0581E7EA
:104D7800844630B5EFF3118E202080F31288BFF3FC
:104D88006F8FCBB93849BCF10E0F0B6835D8ABB370
:104D9800364A136843B93648D0F8181521F003018C
:104DA80041F00101C0F818150133202013608EF37B
:104DB8001188BFF36F8F30BD2B4D2C68F4B194FA76
:104DC800A4F00122B0FA80F08240BCF10F0324EA7B
:104DD80002044FEA001241F1FF3102F1A04202F54C
:104DE8006222C1F31301C2F820352C60C2F82415E1
:104DF8008EF31188BFF36F8F30BD43B9002AC7D136
:104E08006FF057008EF31188BFF36F8F30BD93FAA0
:104E1800A3F00122B0FA80F0164C824023EA020384
:104E28000B60231893F85430ACF10F0C0C3354F882
:104E380033202CF0004512EB0C0204EBC30CDCF819
:104E4800041044F833204FEA001303F1A04341F162
:104E5800000103F56223CCF80410C3F828558EF33B
:104E68001188BFF36F8F30BD149B0320109B032064
:104E780000E00450D000002070B500240D4A82B034
:104E8800D2F800340D4643F001032146C2F800343D
:104E980006460122234620460094FFF769FF064B89
:104EA80018600DF099F8214630462B4602B0BDE84F
:104EB8007040184700600550189B032083691B69E0
:104EC800D3F8800000F00100704700BF21B101292C
:104ED8000CD000231B68FFDE406D58B143685B7936
:104EE800934202D000680028F8D17047C06D0028AE
:104EF800F4D17047704700BF2DE9F04390F86C601B
:104F080081460C4685B0C6F341167BB183691B699F
:104F1800D3F88030DB075AD40DF0D0FD6FF085024E
:104F2800374B1A50002005B0BDE8F08301323146F6
:104F3800D2B2FFF7CBFF05460028EDD06968238A77
:104F4800E068628A6769D21AA0EB070CA2EB0C0230
:104F580091F800C01844624528BF62461344238272
:104F68000DF099FBED683DB3686883681B6B03B36C
:104F7800314698478046E0B10168B9B919E0208AFE
:104F8800E768638AD4F814C01B1AA7EB0C0EA3EBCE
:104F98000E039A4292BF13461A469BB203442382D9
:104FA80038440DF078FB58F8041F11B10A78002A2C
:104FB800E5D12D68002DD7D1B9F82E30218A9AB2C3
:104FC8009142AFD90020238205B0BDE8F083B6FA3C
:104FD80086F6013276093146D2B2FFF777FF0546E9
:104FE800002899D0072243681868596893F808C0C0
:104FF80001AB03C301A983F800C08DF805209EE723
:105008000C00000090F83020022A2CD138B50D464B
:1050180090F86C1090F83820C1F34111FFF756FF53
:10502800A0B1C46824B911E0022B16D024686CB171
:105038002B78032B0BD0052BF6D160688368DB69CE
:10504800002BF3D098472468002CF1D138BD606854
:1050580083685B69002BF5D1E8E7606883689B6922
:10506800002BEFD1E2E7704790F83020022A15D1E3
:1050780010B50C4690F86C1090F83820C1F3411127
:10508800FFF724FF48B10122C068A24028B1036994
:105098001A4202D100680028F9D110BD00207047DB
:1050A80010B5012401F07F030A0648BF10339C4065
:1050B80090F83030022B11D190F86C1090F838200D
:1050C800C1F34111FFF702FF38B1C06828B1836806
:1050D8001C4202D100680028F9D110BD002010BD83
:1050E8002DE9F04190F82830044603F01F03012B06
:1050F8000E4600F1280766D0022B12D0002B36D0BE
:1051080094F82950224652F8643F934208BF00237E
:10511800CBB1187AA8421FD0A06E834213D01B6867
:10512800F6E7818DC9B2FFF7BBFF0028E8D04068D9
:10513800E28D8368002A3ED094F82820D2093AD01C
:10514800DB68002B3AD16FF085030DF0B7FC254AD8
:1051580013500020BDE8F081E28D002A38D094F881
:105168002820D20934D0DB68002B34D1EBE790F843
:10517800303090F82950022BC4D190F86C1090F878
:105188003820C1F34111FFF7A1FE0028BAD0C0684A
:105198000028B5D04368DB684BB11A793AB11B686F
:1051A8001A4413F801CB6545C1D09342F9D1006880
:1051B8000028EFD1A4E79B68002BC4D032463946BB
:1051C800BDE8F0411847818DC9B2FFF74DFFACE744
:1051D8001B69002BB7D0324639462046984703460C
:1051E800B3E700BF0C000000FAB10A446FEA000CF4
:1051F8000E4800B5013902F1FF3E11F8013F83EA7C
:105208000C0202F00F0250F822208E4582EA1C1C84
:105218008CEA131303F00F0350F8233083EA1C1CA5
:10522800EBD16FEA0C005DF804FB7047083401000D
:105238002DE9F8431E464BB201F00F041746002B28
:105248000269B8BF103452F8244005469DF8208002
:10525800D0F8089064B3227DD1072DD4002BA27C0E
:1052680024DB520624D5238AC6F30A02C3F30A03B1
:105278009A421DD832463946204606F0FFFBB8B19F
:10528800237D677623F00603668384F81C802375E4
:10529800D9F81830214628469847B0FA80F3227D7D
:1052A8005B0963F300022275BDE8F8839306DAD43C
:1052B8006FF01200BDE8F8836FF07700FAE700BFDF
:1052C80038B501F00F030269090648BF103352F8D8
:1052D800234085689CB1237DDB070DD52146EB690A
:1052E800984728B90246237D62F30003237538BD29
:1052F800227D02F00102F6E76FF0770038BD6FF00B
:10530800120038BD2DE9F0414C0687686BD0044681
:10531800FB6B0D46904698472369A033D3E8AF3F0F
:10532800D80707D420463B6C98474FF0FF363046E5
:10533800BDE8F08129462046FFF7C2FF06463B6CD0
:1053480020469847002EF2D12906D8F8003028D4F4
:105358000122AA4023EA0203C8F80030A6682046C2
:10536800F36B98472369A033D3E8AF3FDB0736D503
:10537800236905F00F0553F82510002936D00B686E
:10538800204633B3B36898470346326C1E4620461E
:105398009047002ECBD109F0FBFF00263046BDE830
:1053A800F081012225F0800110318A4023EA0203AE
:1053B800C8F80030A6682046F36B98472369A033E5
:1053C800D3E8AF3FDA070AD505F00F052369103592
:1053D800D1E7336C984709F0DBFF0026DEE720466B
:1053E800336C9847A1E76FF01506A0E7336C2046A9
:1053F80098476FF012069AE72DE9F04F8046486803
:105408001E46836889461B6B98F86C1089B09DF816
:1054180048A0C1F34111002B5DD0174698470546B7
:10542800002858D0046800222CB92CE0052B17D08E
:1054380055F8044F2CB323781BB36378042BF5D1AC
:1054480042B9A378B342F3D1E3785345F0D1237935
:10545800002B66D14FF0000B584609B0BDE8F08F1D
:10546800002AE5D0012FA17810D0022F59D1D8F801
:10547800180009F10C02FFF745FF8346002850D0B9
:10548800EAE7002AE6D16FF03C0BE5E7E378D8F8C5
:1054980018B00593A38811F07F0F0693A3790491A0
:1054A8000793DBF80830039315D05846DB6B984711
:1054B800DBF81030A033D3E8AF3F13F0020F0499A4
:1054C8000FD158464FF0FF3B039B1B6C984758463B
:1054D80009B0BDE8F08F6FF0150B584609B0BDE86C
:1054E800F08F079B58460093DDE90523FFF7A0FEE0
:1054F800034658469B46039A126C9047BBF1000F2F
:10550800AAD194F90210A3780029B8BF23F0800328
:10551800D9F80C20B8BF103307FA03F31343C9F8BE
:105528000C30012284E700BF2DE9F04F90F86C7031
:1055380090F8382085B004460291C7F34117002A35
:105548004FD1029B33B9029B84F83830002005B054
:10555800BDE8F08F39462046029AFFF7B7FC0646A9
:10556800E0B1D0F804B09BF804309BF805804BB349
:1055780000254FF0010AA9460390424639462046C5
:10558800EEB2FFF7A3FC48B1C1680AFA05F029B1E9
:105598000B69184207D109680029F9D16FF03C005E
:1055A80005B0BDE8F08F334601222046CDF80090C3
:1055B800FFF722FF0028CAD19BF8043001359D422D
:1055C800DBDB039E029B84F83830F468002CBDD0E6
:1055D800606883681B6A03B198472468002CF7D178
:1055E800B4E790F83030022BD8D13946FFF76EFC7B
:1055F80005460028D2D0D0F80C8004F13A09B8F159
:10560800000F4AD0012608F10C0A05E0F340DB0739
:105618001AD40136102E3BD066F07F0101F07F02CC
:10562800D8F80C301032C9B223FA02F2002B2FD06E
:10563800D207EBD55246A069FFF764FE58B9D8F8EF
:105648000C30F340DB07E4D55246A069F1B2FFF70E
:1056580059FE0028DDD00023C4F83A30C9F80430D8
:10566800C9F80830C9F80C3084F83830ED680646B7
:10567800002D3FF46CAF686883685B6A03B1984794
:105688002D68002DF7D13046002E3FF45AAF5EE763
:10569800D8F80080B8F1000FB4D1C4F83A80C9F83E
:1056A8000480C9F80880C9F80C8084F83880ED684F
:1056B800002D3FF446AF4646DDE700BF2DE98048A0
:1056C8004FF000094FF0200BDFF8C08299B0EFF3DC
:1056D80011858BF31288BFF36F8FD8F82040002C08
:1056E80040F00183AA4B09AA9B6828461A614146E3
:1056F8004FF0FF324FF0FF3309F0FCFB0B9B1B69A7
:10570800D3F89C703B6A002B00F0E380EFF3118321
:105718008BF31288BFF36F8F3C6A002C00F0D580A2
:10572800796A22688C423A6208BF7A6283F31188E8
:10573800BFF36F8F267ED4F81E50730640F0838027
:10574800002D40F08F80637E9A0702D5802E00F0EE
:10575800A982980700F0A780002E40F03682D9076A
:1057680040F14E82238A07F12802082B40F01C855D
:10577800E368204619685B68B9625360D4F804A0EE
:105788006660FFF71BF8BAF1000F40F00982FA8D46
:10579800002A00F0348297F82830B869DB0940F015
:1057A800F182531E026931461268528B1344B3FBCF
:1057B800F2F303FB02F2FEF7B3F80146002800F00B
:1057C800EC84437E23F0070343F002034376384614
:1057D800FDF750FA0646002E94D0FB69002B91D0B5
:1057E800EFF311818BF31288BFF36F8F694CE36875
:1057F800002B00F0BF84A26918680132A261E06042
:1058080081F31188BFF36F8F0722DE605F601A7221
:10581800EFF311818BF31288BFF36F8F5E4AC3F8E1
:1058280000905268002A00F0C88413605A4A5360F6
:1058380081F31188BFF36F8F00220023574958481E
:105848000AF00CF85EE7D4F81A0083681B69002B8D
:1058580001F03E802A46214698470646002E3FF42E
:1058680051AFBAE72046FEF7A9FF637ED80706D4F2
:1058780099077FF547AF237E002B7FF443AFBC6FBA
:105888003846237A2146013323726369A4F81090BD
:10589800E360FDF7EFF9064600283FF433AF2046F2
:1058A800FEF78CFF99E75B0705D5002E00F0FA811B
:1058B800802E00F09081FB8D002B40F07881BE692E
:1058C80030468021FCF758F9D9E783F31188BFF3F4
:1058D8006F8F9DF82430062B3FF4F9AE072B3FF667
:1058E800F6AE01A252F823F09D5B0000C35A0000F7
:1058F8004D5B0000FD5A0000AD59000081590000C1
:10590800D756000011590000FB69002B3FF4DFAEA9
:105918000A98EFF311818BF31288BFF36F8F1D4D37
:10592800EB68002B00F03384AA691C680132AA6175
:10593800EC6081F31188BFF36F8F06225F60D86037
:105948001A72EFF311818BF31288BFF36F8F124A2B
:10595800C3F800905268002A00F0338413600E4A9E
:10596800536081F31188BFF36F8F002200230B4926
:105978000B4809F073FFAAE697F83030022B7FF442
:10598800A6AE384609A9FFF73DFBA0E6000B0020AC
:10599800249B0320580A0020A49A0320A00000207A
:1059A8002890032097F86C30BD696FF3820387F85D
:1059B8006C30AE682B69A033D3E8AF3F9A0740F14B
:1059C800DF832846F36B9847736A00212846984777
:1059D8000446336C28469847002C40F0D383214670
:1059E8003846FFF7A1FD0446002840F0CB83BD6987
:1059F800AE682846F36B98472B69A033D3E8AF3FCE
:105A08009B0740F1368433682846002B00F0D38585
:105A18009847034628461D46326C9047A5F1020375
:105A2800B3FA83F35B0997F86C2087F8309022F07B
:105A3800680242EA431387F86C30FB69002B3FF495
:105A480046AEEFF311818BF31288BFF36F8FB84D19
:105A5800EB68002B00F00284AA6918680132AA6179
:105A6800E86081F31188BFF36F8F04225F60C3F889
:105A78000C901A72EFF311818BF31288BFF36F8FBA
:105A8800AC4AC3F800905268002A00F0EF83136014
:105A9800A84A536081F31188BFF36F8F0022002357
:105AA800A548A64909F0DAFE002C3FF410AE2246BC
:105AB80038460721FDF754FC09E6FB69002B3FF443
:105AC80006AEEFF311818BF31288BFF36F8F984CFA
:105AD800E368002B00F05B83A26918680132A261B9
:105AE800E06081F31188BFF36F8F01225F60C3F814
:105AF8000C9025E797F86C3043F0040387F86C3076
:105B080097F83030022B00F0A483FB69002B3FF498
:105B1800DEADEFF311818BF31288BFF36F8F844CE6
:105B2800E368002B00F03383A26918680132A26190
:105B3800E06081F31188BFF36F8F03225F60C3F8C1
:105B48000C90FDE697F86C306FF3820387F86C30A1
:105B580097F83030022B00F07783FB69002B3FF475
:105B6800B6ADEFF311818BF31288BFF36F8F704CD2
:105B7800E368002B00F00B83A26918680132A26168
:105B8800E06081F31188BFF36F8F02225F60C3F872
:105B98000C90D5E6002238461146FDF7E1FB96E564
:105BA8005046FEF70BFEFB8D002B3FF488AE97F8AE
:105BB8002830B869DB097FF484AE15F10C0118BFF1
:105BC8000121C901FBF7D8FF59E65A077FF573AEE3
:105BD800802E7FF470AE2046FEF7F0FD97F839303E
:105BE800002B3FF48FAD97F82930052B00F0FB848C
:105BF800032B00F0C084002387F8393082E534464F
:105C08000CF05CFF97F828604D4A16F0600FC6F359
:105C1800411342F8009000F09580032B4ED02146A6
:105C28003846FFF75DFA064636B3002C3FF4D5AD8B
:105C38002046FEF7C3FDD0E5BE69798D33697F291B
:105C4800D3F880003AD8BA8D5AEA020236D197F8CA
:105C58002820D20632D197F83020022A00F0928507
:105C6800000700F12985012387F83930012A00F05F
:105C78009485012387F830300CF020FF304B1B58F7
:105C880013BBFA8D3AB197F82830DB0940F04A8205
:105C98002046FEF793FD3846FEF7C8FD00287FF43E
:105CA8000AAEECE52046FEF789FD2BE597F828308B
:105CB80003F01F03012B079300F052810CF0FEFE46
:105CC8006FF085031E4A1350002C3FF4F4AD2046B4
:105CD800FEF774FD0CF0F2FE194B1B58002B7FF4F5
:105CE800EAADFA8DCEE7D8F81860D8F808703146D2
:105CF8003A4609A80CF0CFFCD8F814303E449E422E
:105D080004F1FF3408BFD8F81030C8F82040D8F89C
:105D18000040C8F8186008BFC8F81830444502D0D9
:105D2800002C40F0528285F31188BFF36F8FE5E4B1
:105D3800580A0020A49A032028900320A0000020DD
:105D48000C000000FA8D97F82930924642B3F20908
:105D580040F01C81033B082BB0D801A252F823F075
:105D6800C55C0000C55C0000415C0000C55C00002B
:105D7800C55C0000C55C0000C55C0000C55C000097
:105D8800C55C00008021FDF7CBFD0446002800F02B
:105D98000482437E23F0070343F0020343762FE790
:105DA800013B0A2B8AD801A151F823F0455E000077
:105DB800C55C0000E15D0000C55C0000415C0000BE
:105DC800C55C0000C55C0000C55C0000115F0000F8
:105DD800C55C0000B55C0000798DBB8D02295FFAB7
:105DE80083FA00F0068597F83000002800F0C78095
:105DF800012800F04F8216F01F0600F0F684022EEC
:105E08007FF440AF00297FF446AF5146B869039349
:105E1800FBF7B2FE0246002800F030850CF04EFE7B
:105E2800A24B1A50013200F0C78551463846FFF799
:105E380037F90346002840F03E8545E797F83010CB
:105E4800002900F09C800129BB8D00F0B78316F073
:105E58001F0600F0EB83022E7FF414AF7A8D002A20
:105E68007FF419AFBE690493B2683046D16B0392D0
:105E780088473169A031D1E8AF1F11F0020F039AAA
:105E880000F09185049B316958B25FFA83FA0028C3
:105E980003F00F03B8BF103351F823100390002903
:105EA80000F076850B7DD80740F172854B7E03F0B4
:105EB8000303012B00F058851369304604920591BD
:105EC8009847049A0346002800F02B85126C03902B
:105ED800304690470CF0F2FD039B744A135001338F
:105EE80000F06A8551463846FFF7DAF8034600287D
:105EF8003FF4EAAE586883681B68002B3FF4BCAED9
:105F0800514600229847B7E67E8D97F86C10FF2E11
:105F1800C1F341113FF6D2AE97F82830DA067FF484
