:10000000C06E052091590000F57101007D59000076
:100010007D5900007D5900007D5900007D59000088
:10002000000000000000000000000000F55A000081
:100030007D590000000000008D5A00007D5900002D
:10004000C15C0000C15C0000C15C0000C15C00003C
:10005000C15C0000C15C0000C15C0000C15C00002C
:10006000C15C0000C15C0000C15C0000C15C00001C
:10007000C15C0000C15C0000C15C0000C15C00000C
:1004C80081F0004102E000BF83F0004330B54FEAFD
:1004D80041044FEA430594EA050F08BF90EA020F6A
:1004E8001FBF54EA000C55EA020C7FEA645C7FEAFD
:1004F800655C00F0E2804FEA5454D4EB5555B8BF20
:100508006D420CDD2C4480EA020281EA030382EA90
:10051800000083EA010180EA020281EA0303362D22
:1005280088BF30BD11F0004F4FEA01314FF4801CF5
:100538004CEA113102D0404261EB410113F0004F07
:100548004FEA03334CEA133302D0524263EB4303BE
:1005580094EA050F00F0A780A4F10104D5F1200E5C
:100568000DDB02FA0EFC22FA05F2801841F10001B7
:1005780003FA0EF2801843FA05F359410EE0A5F18B
:1005880020050EF1200E012A03FA0EFC28BF4CF0BC
:10059800020C43FA05F3C01851EBE37101F0004572
:1005A80007D54FF0000EDCF1000C7EEB00006EEB7F
:1005B8000101B1F5801F1BD3B1F5001F0CD3490809
:1005C8005FEA30004FEA3C0C04F101044FEA445260
:1005D80012F5800F80F09A80BCF1004F08BF5FEAE7
:1005E800500C50F1000041EB045141EA050130BDC7
:1005F8005FEA4C0C404141EB0101013C28BFB1F5D9
:10060800801FE9D291F0000F04BF01460020B1FA23
:1006180081F308BF2033A3F10B03B3F120020CDAF6
:100628000C3208DD02F1140CC2F10C0201FA0CF0D4
:1006380021FA02F10CE002F11402D8BFC2F1200C39
:1006480001FA02F120FA0CFCDCBF41EA0C019040EF
:10065800E41AA2BF01EB0451294330BD6FEA040438
:100668001F3C1CDA0C340EDC04F11404C4F1200223
:1006780020FA04F001FA02F340EA030021FA04F335
:1006880045EA030130BDC4F10C04C4F1200220FA8C
:1006980002F001FA04F340EA0300294630BD21FACA
:1006A80004F0294630BD94F0000F83F4801306BF90
:1006B80081F480110134013D4EE77FEA645C18BF84
:1006C8007FEA655C29D094EA050F08BF90EA020F1B
:1006D80005D054EA000C04BF1946104630BD91EA13
:1006E800030F1EBF0021002030BD5FEA545C05D116
:1006F8004000494128BF41F0004130BD14F5800455
:100708003CBF01F5801130BD01F0004545F0FE41C8
:1007180041F470014FF0000030BD7FEA645C1ABFFD
:10072800194610467FEA655C1CBF0B46024650EA34
:10073800013406BF52EA033591EA030F41F4002160
:1007480030BD00BF90F0000F04BF0021704730B5E6
:100758004FF4806404F132044FF000054FF00001BB
:1007680050E700BF90F0000F04BF0021704730B57C
:100778004FF4806404F1320410F0004548BF404251
:100788004FF000013EE700BF42004FEAE2014FEAA6
:1007980031014FEA02701FBF12F07F4393F07F4F81
:1007A80081F06051704732F07F4208BF704793F084
:1007B8007F4F04BF41F40021704730B54FF4607497
:1007C80001F0004521F000411CE700BF50EA01029A
:1007D80008BF704730B54FF000050AE050EA010243
:1007E80008BF704730B511F0004502D5404261EBB3
:1007F80041014FF4806404F132045FEA915C3FF4F4
:10080800D8AE4FF003025FEADC0C18BF03325FEA90
:10081800DC0C18BF033202EBDC02C2F1200300FA41
:1008280003FC20FA02F001FA03FE40EA0E0021FA66
:1008380002F11444BDE600BF80F0004002E000BFB2
:1008480081F0004142001FBF5FEA410392EA030FB3
:100858007FEA226C7FEA236C6AD04FEA1262D2EBFD
:100868001363C1BFD218414048404140B8BF5B4202
:10087800192B88BF704710F0004F40F4000020F09B
:100888007F4018BF404211F0004F41F4000121F0B1
:100898007F4118BF494292EA030F3FD0A2F10102FB
:1008A80041FA03FC10EB0C00C3F1200301FA03F139
:1008B80000F0004302D5494260EB4000B0F5000F5C
:1008C80013D3B0F1807F06D340084FEA310102F11B
:1008D8000102FE2A51D2B1F1004F40EBC25008BFCD
:1008E80020F0010040EA03007047490040EB000097
:1008F800013A28BFB0F5000FEDD2B0FA80FCACF198
:10090800080CB2EB0C0200FA0CF0AABF00EBC250C4
:1009180052421843BCBFD0401843704792F0000FB2
:1009280081F4000106BF80F400000132013BB5E705
:100938004FEA41037FEA226C18BF7FEA236C21D07B
:1009480092EA030F04D092F0000F08BF08467047E0
:1009580090EA010F1CBF0020704712F07F4F04D1AE
:10096800400028BF40F00040704712F100723CBFC1
:1009780000F50000704700F0004343F0FE4040F4EB
:10098800000070477FEA226216BF08467FEA2363A9
:100998000146420206BF5FEA412390EA010F40F494
:1009A800800070474FF0000304E000BF10F00043E0
:1009B80048BF40425FEA000C08BF704743F09643C7
:1009C80001464FF000001CE050EA010208BF7047E2
:1009D8004FF000030AE000BF50EA010208BF704769
:1009E80011F0004302D5404261EB41015FEA010C7E
:1009F80002BF84460146002043F0B64308BFA3F176
:100A08008053A3F50003BCFA8CF2083AA3EBC25357
:100A180010DB01FA02FC634400FA02FCC2F1200276
:100A2800BCF1004F20FA02F243EB020008BF20F0AD
:100A38000100704702F1200201FA02FCC2F1200213
:100A480050EA4C0021FA02F243EB020008BF20EA08
:100A5800DC7070474FF0FF0C1CEAD0521EBF1CEA36
:100A6800D15392EA0C0F93EA0C0F6FD01A4480EA24
:100A7800010C400218BF5FEA41211ED04FF000630D
:100A880043EA501043EA5111A0FB01310CF0004039
:100A9800B1F5000F3EBF490041EAD3715B0040EA5F
:100AA800010062F17F02FD2A1DD8B3F1004F40EB2F
:100AB800C25008BF20F00100704790F0000F0CF002
:100AC800004C08BF49024CEA502040EA51207F3AC6
:100AD800C2BFD2F1FF0340EAC250704740F40000A1
:100AE8004FF00003013A5DDC12F1190FDCBF00F092
:100AF80000407047C2F10002410021FA02F1C2F140
:100B0800200200FA02FC5FEA310040F1000053EADB
:100B18004C0308BF20EADC70704792F0000F00F029
:100B2800004C02BF400010F4000F013AF9D040EA2F
:100B38000C0093F0000F01F0004C02BF490011F4C3
:100B4800000F013BF9D041EA0C018FE70CEAD153C1
:100B580092EA0C0F18BF93EA0C0F0AD030F0004C41
:100B680018BF31F0004CD8D180EA010000F00040F5
:100B7800704790F0000F17BF90F0004F084691F0B3
:100B8800000F91F0004F14D092EA0C0F01D14202ED
:100B98000FD193EA0C0F03D14B0218BF084608D1B6
:100BA80080EA010000F0004040F0FE4040F4000000
:100BB800704740F0FE4040F4400070474FF0FF0C93
:100BC8001CEAD0521EBF1CEAD15392EA0C0F93EADA
:100BD8000C0F69D0A2EB030280EA010C49024FEA2C
:100BE800402037D04FF0805343EA111143EA1013E5
:100BF8000CF000408B4238BF5B0042F17D024FF49D
:100C0800000C8B4224BF5B1A40EA0C00B3EB510F77
:100C180024BFA3EB510340EA5C00B3EB910F24BF60
:100C2800A3EB910340EA9C00B3EBD10F24BFA3EBE5
:100C3800D10340EADC001B0118BF5FEA1C1CE0D1AD
:100C4800FD2A3FF650AF8B4240EBC25008BF20F060
:100C5800010070470CF0004C4CEA50207F32C2BFB4
:100C6800D2F1FF0340EAC250704740F400004FF051
:100C78000003013A37E792F0000F00F0004C02BF82
:100C8800400010F4000F013AF9D040EA0C0093F04C
:100C9800000F01F0004C02BF490011F4000F013BA6
:100CA800F9D041EA0C0195E70CEAD15392EA0C0F0E
:100CB80008D142027FF47DAF93EA0C0F7FF470AF46
:100CC800084676E793EA0C0F04D14B023FF44CAF89
:100CD80008466EE730F0004C18BF31F0004CCAD11E
:100CE80030F000427FF45CAF31F000437FF43CAF5A
:100CF8005FE700BF4FF0FF3C06E000BF4FF0010C7C
:100D080002E000BF4FF0010C4DF804CD4FEA40025D
:100D18004FEA41037FEA226C18BF7FEA236C11D0A7
:100D280001B052EA530C18BF90EA010F58BFB2EB5A
:100D3800030088BFC81738BF6FEAE17018BF40F0DA
:100D4800010070477FEA226C02D15FEA402C05D18E
:100D58007FEA236CE4D15FEA412CE1D05DF8040B13
:100D6800704700BF844608466146FFE70FB5FFF7A6
:100D7800C9FF002848BF10F1000F0FBD4DF808ED5E
:100D8800FFF7F4FF0CBF012000205DF808FB00BF4F
:100D98004DF808EDFFF7EAFF34BF012000205DF8A9
:100DA80008FB00BF4DF808EDFFF7E0FF94BF0120F6
:100DB80000205DF808FB00BF4DF808EDFFF7D2FFF3
:100DC80094BF012000205DF808FB00BF4DF808ED36
:100DD800FFF7C8FF34BF012000205DF808FB00BF03
:100DE8004FEA4002B2F1FE4F0FD34FF09E03B3EB30
:100DF80012620DD94FEA002343F0004310F0004F70
:100E080023FA02F018BF404270474FF000007047C5
:100E180012F1610F01D1420205D110F0004008BF64
:100E28006FF0004070474FF00000704753B94AB95F
:100E3800002908BF00281CBF4FF0FF314FF0FF30DA
:100E480000F00CB8ADF1080C6DE904CE00F01AF80A
:100E5800DDF804E0DDE9022304B07047704700BF05
:100E680010F8012B11F8013B012A28BF9A42F7D04C
:100E7800D01A7047034613F8012B002AFBD1181A21
:100E8800013870472DE9F04786468C460846089E8B
:100E9800154674461946002B40F0C1808542B2FAC7
:100EA80082F245D94AB1C2F1200300FA02FC95400A
:100EB80094402EFA03F343EA0C0C4FEA154EA8B2FD
:100EC800230CBCFBFEF80EFB18CC08FB00F943EA28
:100ED8000C43994528D9EB1808F1FF3704D29945F6
:100EE80002D9A8F102072B44A3EB0903A4B2B3FB70
:100EF800FEFC0EFB1C330CFB00F044EA0344A0424A
:100F080014D92C190CF1FF3304D2A04202D9ACF148
:100F180002032C44241A43EA07401EB1D44000239C
:100F280034607360BDE8F0874746DDE76346F1E764
:100F380092BB431B01214FEA154EAFB2200CB3FB05
:100F4800FEFC0EFB1C330CFB07F840EA03439845F4
:100F580061D9EB180CF1FF3004D2984502D9ACF1F5
:100F680002002B44A3EB0803A4B2B3FBFEFC0EFB68
:100F78001C330CFB07F744EA0344A7424DD92C194C
:100F88000CF1FF3304D2A74202D9ACF102032C447E
:100F9800E41B43EA0040C0E7C2F1200395409440B7
:100FA80020FA03F12EFA03F34FEA154E9040AFB240
:100FB8000343B1FBFEFC0EFB1C10190C0CFB07F8DD
:100FC80041EA0041884522D969180CF1FF3004D262
:100FD800884502D9ACF102002944A1EB08019BB273
:100FE800B1FBFEFC0EFB1C110CFB07F743EA0143A7
:100FF8009F420ED9EB180CF1FF3104D29F4202D95F
:10100800ACF102012B44DB1B41EA004193E7604647
:10101800E3E76146F7E76046A4E76346B8E783423B
:1010280006D916B9002108467CE7C6E900E0F9E7C9
:10103800B3FA83F78FB9834201D3724508D8BEEB60
:10104800020460EB030301209C461EB9002169E7F6
:101058003846FAE7C6E9004CF8E7C7F1200CBB4070
:101068000EFA07F522FA0CF42EFA0CF1BA401C43DA
:1010780020FA0CF3B8404FEA144901431FFA84FEE2
:10108800B3FBF9F809FB18300B0C08FB0EFA43EA1E
:1010980000439A4540D9E31808F1FF3004D29A4535
:1010A80002D9A8F102002344A3EB0A0389B2B3FBD7
:1010B800F9F809FB183308FB0EFE41EA03418E4597
:1010C8002CD9611808F1FF3304D28E4502D9A8F152
:1010D8000203214443EA0040A1EB0E01A0FB029861
:1010E8004145CE46434602D306D14D4504D2013888
:1010F800B9EB020E68EB0403002EA7D0B5EB0E0285
:1011080061EB030101FA0CFC22FA07F3F9404CEAFF
:101118000303C6E9003199E74046C5E74346D9E7E6
:1011280037B505463749384816F0BFF9034638B190
:10113800364A0121364815F0E0FD002003B030BDE5
:101148003449314816F0B1F9034608B1324AF0E79C
:1011580032492D4816F0A9F9034608B1304AE8E7A4
:101168003049294816F0A1F9034608B12E4AE0E7AC
:10117800254816F0F9F8012804461BD101462B4AE8
:10118800214807F02BF828B1294A0121204815F0F9
:10119800ABFDD2E722462146264B1B4807F0F2F961
:1011A80008B1254AF1E70223EF22214616480094A8
:1011B80016F0E1F80021214A134807F00FF801461C
:1011C80008B11F4AE1E701221A4B0F4807F0DAF984
:1011D80001460028E5D101240223EF220A480094A1
:1011E80016F0C9F82146084816F0EAF80DB906487D
:1011F800A4E72946044816F0E6FB0028F7D0114A70
:10120800C3E700BF60020020E80C00203E3A03005C
:101218009CBB0100480200206C3A03003002002009
:101228009E3A030018020020CB3A0300C0010020B8
:10123800F33A030018C201001A3B0300D40100204E
:10124800393B0300603B030008B5FFF769FF40B175
:10125800064805F093FC30B10121054A054815F010
:1012680043FD002008BD0148FCE700BFE80C002052
:10127800843B03009CBB010008B503687F2B4FEA41
:10128800531107D80C4A03F01F0332F91120DA4032
:10129800D2070BD409490A484FF47473094A15F068
:1012A800A7FA4FF47471074815F099FA0360064BD2
:1012B80053F8210008BD00BF063A03004B3C030069
:1012C8006E3C0300183C030020C2010007B50190E2
:1012D80001A8FFF7D1FF019B00EB8300D0F8802025
:1012E800044B134043F00303C0F8803003B05DF8AB
:1012F80004FB00BFF0F0FCFF0146114810B58368FD
:1013080059B9104940F22E230F4A104815F070FAC7
:1013180040F22E210C4815F062FA8A684AB90C4945
:1013280040F22F23084A094815F062FA40F22F21AB
:10133800F0E71B6913B1BDE81040184710BD00BFA6
:1013480048B00100BD3C03008B3C03006E3C030029
:10135800D03C030010B5134B59681A690968890114
:101368000ED4114940F2A263104A114815F040FA10
:10137800104815F03DFA40F2A2610C4815F02FFA1A
:101388001268920148BF80F0010038B19B68DB68A1
:101398004FF00071BDE81040024818479B681B6970
:1013A800F6E700BF4CAF01001C3D0300EB3C030017
:1013B8006E3C03005A3D0300F8B5044600AF0068D0
:1013C80018F01DF903462068BBB96C4688B001685F
:1013D8006A463E48C2E905014FF4007191833C49D1
:1013E80042F8101F4FF4E2513A4803F0D9FA6FF06F
:1013F8001205A5462846BD46F8BD2179E38803F0C5
:101408003002302AD0F810C0D0E9015E0ED132493E
:1014180040F2F733314A324815F0EAF9314815F00D
:10142800E7F940F2F7312D4815F0D9F903F0060233
:10143800042A09D12C4940F2FE33284A284815F0DD
:10144800D7F940F2FE31EEE701262D68DA0706FAF1
:1014580001F654BF43F4B01383F4D0132E4223F49F
:1014680080120CD1214940F211431C4A1C4815F046
:10147800BFF91F4815F0BCF940F21141D3E7DCF879
:101488000050DB074CBF3543B543CCF80050DEF8BD
:101498000030984705460028ACD02368196823799E
:1014A8006C468AB06A46C2E907354FF400731148A2
:1014B8009384114BC2E9050142F8103F00234FF411
:1014C8003151044803F06CFAA54693E76C3D0300DC
:1014D80003000001DCBA0100813D0300EB3C03007E
:1014E8006E3C0300BA3D0300F73D03001C3D0300BA
:1014F8005A3D03002A3E0300050000012DE9F04F84
:10150800C5B08F4804AF15F0B4FC18220546002179
:1015180007F1280019F0A2F880238A4A7B63C7E9FB
:101528000B234FF480738848BB63FFF745FF68B906
:101538008648FFF741FF48B9854E304618F05FF8F6
:1015480058B90121834A844815F0CEFB4FF0FF308B
:1015580007F58277BD46BDE8F08FB3681B685BB1BD
:10156800304607F128019847034640B17B4A0121DC
:10157800794815F0C2FBE9E76FF05703F6E7044630
:101588004FF00108002200234FF4806017F000FE9E
:1015980010B9734A2346EAE780F804800134FFF75C
:1015A800ABFE082CEED103F07DFE034608B16D4A70
:1015B800DDE7634803F076FD044610B16A4A034646
:1015C800D5E72946002014F09CFD4FF470420146EF
:1015D800664819F043F84FF0745A4FF07E59DFF817
:1015E80090812046FFF7DEF95146FFF733FA0146AE
:1015F800FFF728F94946FFF723F9294614F081FD3A
:101608000134202C08F8010BEBD100244FF0725A5A
:101618004FF07E59DFF85C812046FFF7C3F9514649
:10162800FFF718FA0146FFF70DF94946FFF708F9E1
:10163800294614F066FD0134402C08F8010BEBD163
:101648003F4800F0B9F900F0CFFC034620B1022171
:10165800494A414815F051FB2A20FFF737FE2B2055
:10166800FFF734FE2C20FFF731FE2D20FFF72EFE6A
:101678000321424A384815F037FBB3689B68F3B139
:1016880001223348114698470346D0B9DFF8F08065
:101698003C4ED8F80430FB60FB681B685B0212D430
:1016A800394940F2CB63394A394815F0A1F839482D
:1016B80015F09EF840F2CB61344815F090F86FF0C1
:1016C8005703354A53E7D8F808304FF480015B696F
:1016D800404698472A2014F030FD80220025DFF884
:1016E80070904FF400431146306800F0DBFCD9F8E5
:1016F8000830DFF878A03B603B685C69002C51D16A
:101708006FF0570401212346244A134815F0F5FACF
:1017180001212346224A104815F0EFFAD9F808406B
:10172800A368002B3FF412AF012200210848984714
:10173800A369002B3FF40AAF01210548984705E744
:1017480040C201005247425038C2010030C2010075
:1017580048B00100513E0300DCBA0100683E0300B6
:101768008D3E0300B33E0300D93E0300640A042003
:10177800C4C6032084C60320FD3E03003B3F03008C
:101788004CAF0100709B03201C3D0300EB3C0300A1
:101798006E3C03005A3D0300523F0300723F0300B2
:1017A8008B3F03004FF0FF324FF0FF33484607F1FD
:1017B8004001A04710F10B0F04469DD00028A1D18D
:1017C8003B6CC5F5004B5B692B209B4528BF9B46AE
:1017D80014F0B3FC3B6C99683B626B08BB614FEA41
:1017E8005B033B614B1CBB603B69A3422FD159464D
:1017F8005D444FF0010B3B6A986800F083FC2B2096
:1018080014F0A7FC386C80F804B0FFF775FDB5F547
:10181800004FFFF471AF00F08DFC2A2014F099FC02
:101828002C2014F08AFC5A4A5A495B4815F0D3FB1D
:1018380005462C2014F08DFCA5B3584A2B46594672
:10184800574815F05AFA0020FFF784FD7EE64FF05E
:10185800A00CBB6953481A1902F07F031033D20950
:101868000CFB0233BA6811F814C012F814200134C2
:1018780042EA0C224FEAD22C10F80CC04A48C2F3B4
:10188800451E10F80EE0474802F01F020AF803C090
:10189800825C534403F5A04C03F520438CF800E028
:1018A8001A70A1E72D2007F1400414F046FC082324
:1018B80022463749384800F0D5F881462D2014F0E3
:1018C80048FCCDE90149009510238022A021306809
:1018D80000F044FCB9F1000F50D05846FFF73AFD2C
:1018E800207D00F0CBFA82462068FEF74DFFC7E95D
:1018F80008016068FEF748FFC7E90601A068FEF71F
:1019080043FFC7E90401E068FEF73EFFC7E90001AD
:101918002069FEF739FFC7F808D094B004AA234B12
:10192800C2F81CA0C2E90535D7E908AB40F201337B
:10193800A2F848301E4BC2E908ABD7E906ABC2E9AA
:101948001001C2E90AABD7E904ABC2E90CABD7E98D
:1019580000ABC2E90EAB42F8103F002347F2C0418A
:101968000F48013503F01CF8A945D7F808D004F151
:101978001804B5D13368013333608DE64846FFF764
:10198800E9FC03210B4A064815F0AEF9F2E700BF5F
:10199800E4C60320640A042040C20100AC3F0300EF
:1019A800DCBA0100C4C6032084C60320C93F030073
:1019B8000E00000107400300F8B5044648B9224963
:1019C800EB23224A224814F013FFEB211F4814F09E
:1019D80006FFB0F88230022B07D01E49EC231B4AC1
:1019E8001B4814F005FFEC21F0E700251A4E1B4FA9
:1019F800B07868B994F97D3094F87C20A16F1748C5
:101A0800013514F0C5FB032D06F11C06F0D1F8BD15
:101A1800B4F88220431E934207DD1149F5230B4A8F
:101A28000B4814F0E5FEF521D0E7D4F88410DBB2BA
:101A380003EB830301EB830191F911300A7C07EB77
:101A4800C020C968DCE700BFABAF050085AF050063
:101A58006E3C0300B1AF0500AC320300749B032059
:101A680087B005002DE9F04FADF2F44D0546CDE9FC
:101A780006210D9358B9B34940F20513B24AB34849
:101A880014F0B6FE40F20511AF4814F0A8FEB0F805
:101A98008230022B09D0AE494FF48373AA4AAB486F
:101AA80014F0A6FE4FF48371EEE7079B4BB9A949E2
:101AB80040F20713A44AA54814F09AFE40F2071111
:101AC800E2E7069B4BB9A4494FF484739E4A9F48AA
:101AD80014F08EFE4FF48471D6E7182390F93D4038
:101AE8009E4E03FB0404608AFEF75CFF0990208A7F
:101AF800FEF758FF00230A900093B3780393A3B925
:101B080005F1700328460399019315F0BEF90024E6
:101B1800079B03440B93019B1B889C4259D20023CB
:101B28000293039B4FEA432B04E11422D5F8843037
:101B3800039902FB0133103BE4E70423029A05935F
:101B48000B9B04969F188649019B0846B3F80080B2
:101B5800B3F80290059B03FB08F308EB030A04EBB8
:101B68000A02234409FB03F309FB02F2FB5CBA5C9B
:101B78005B445A4451F8221050F82300FEF76AFFDC
:101B88004FF07A510E90FFF703F9002840F0C58016
:101B98006FF0040303FB08A2131909FB03F3424483
:101BA80017F903A0A31809FB03F342449044FB561A
:101BB800A04409FB08F80C93A318009A09FB03F347
:101BC800312A17F908801FD90221664A664815F09C
:101BD8008BF8664B1C36B3428FD14FF0000A18229F
:101BE800634B009910A818F085FD55464FF0180B67
:101BF80010AC009B9A4500F038810D9BAB4240F237
:101C080034810023069E1FE1FB5C049ADFF85091A3
:101C18005B4403F58073516859F82300FEF71AFFF7
:101C28004FF07C51FEF716FF00210890FFF7B0F83F
:101C3800002872D1049B5BFA88F808F580789968C7
:101C480059F82800FEF706FF4FF07C51FEF702FF17
:101C580000218146FFF79CF800285ED17078FEF7D6
:101C6800A1FE80460298FEF79DFE3D4A5BFA8AFA7D
:101C780052F82A10FEF7E6FD4146FEF7EBFE0C9BF4
:101C880082465BFA83F320460C93FEF78BFE0C9B8F
:101C9800334A52F82310FEF7D5FD4146FEF7DAFE27
:101CA800089980465046FEF7CBFD002118F0ACFF9E
:101CB80049460F904046FEF7C3FD002118F0A4FFE7
:101CC80008990C905046FEF7BDFD0146099818F09A
:101CD800BFFF494682464046FEF7B4FD01460A98D2
:101CE80018F0B6FF4FF0180C009B0F9A0CFB03FC82
:101CF8000CF140030DEB030110AB43F80C200C9BD7
:101D080096F800E04B60C1F808A0C8600E9B81F807
:101D180014E00B61009B01330093059B0633059388
:101D2800049B08330493059B162B7FF40CAF029B8E
:101D380001330293019B029A5B889A42FFF4FDAE3D
:101D48000134E8E6ABAF050085AF05006E3C030043
:101D5800B1AF0500B1B00500BDB00500AC3203005D
:101D6800749B0320C3B00500BCBA01000033030014
:101D78007361010022680B933368104619460A9272
:101D8800019318F041FF6368079002937368029803
:101D98001946039318F038FFD6F80890D4F808804D
:101DA80049460890404618F053FFE36807460493F5
:101DB800F36804981946059318F04AFF07990990A3
:101DC8003846FEF73DFD002118F01EFF089907462A
:101DD8000998FEF735FD002118F016FF0146384630
:101DE800FEF738FE0A9A074611464046FEF728FDD8
:101DF800029980460498FEF723FD01464046FEF707
:101E080029FE019980464846FEF71AFD0399814646
:101E18000598FEF715FD01464846FEF71BFE0146EC
:101E28004046FEF70FFD3946FEF70AFD1149FEF759
:101E380009FD01463846FEF7C1FE0F491836FEF780
:101E4800C5FF70B90B9B0133AB4293D12746069B64
:101E58000BFB05360FCF0FC697E8030086E8030093
:101E680001350AF1010A1834C3E628460DF2F44D8B
:101E7800BDE8F08FBD3786356666E63E02289ABF14
:101E8800024B53F820000248704700BFA0320300FD
:101E9800DCB0050037B50446A368DB6B002B3AD1EC
:101EA800A3689B6B002B3BD1A368DB691BB1204661
:101EB80098470028F0D01D4D2946AB6851F8102FDF
:101EC80028469B1AB3F5007F01AA28BF4FF4007378
:101ED80014F021FE024630B9A3689B690BB1204675
:101EE800984703B030BDA3680199DB6833B910493E
:101EF8000022A1F1100014F040FEF2E720469847B6
:101F0800021EF4DD284605F1100114F036FE0948DA
:101F18000EF0DEFCC0E7204698470028C0D1E0E775
:101F2800204698470028BFD1DBE700BF78B30320DD
:101F380088B30320600C00202DE9F84306460D46BF
:101F48000024114FDFF84480DFF84490AC4205D3F9
:101F58000F4814F064F90120BDE8F883D7E8AF0F03
:101F68000028F9D02A1B3119404602F01DF9044413
:101F7800A542EBD9484614F052F940F23912002331
:101F880004480EF023FDE1E79CB3032078B3032057
:101F980084AF0100600C002007B50022019283681D
:101FA8009B6C13B1042101AA9847019B0A4A003B84
:101FB80018BF0123D2E8EF1FC2E8E03F0028F9D19B
:101FC800019B3BB1054A0321054814F08DFE03B07F
:101FD8005DF804FB034AF6E79CB30320F0B0050064
:101FE8003CBB010009B1050010B5234C204617F091
:101FF80006FB40B90121214A214814F075FE6FF013
:102008001204204610BD4FF400521E4BDA611E4ADE
:102018001A600022C3E90222C3E905225A601A6144
:10202800A36823B11B6C13B1204618499847184878
:10203800FFF70AF9174C206038B90121164A1048F1
:1020480014F052FE6FF00404DBE715F0CEF958B92E
:10205800206804F0D3FD044630B1012103460F4A3D
:10206800074814F04AFECCE703210D4A044814F04F
:102078003BFE0024C5E700BF84AF01002DB1050079
:102088003CBB010078B3032065FA04209D1E0000C4
:102098004162010098B3032046B105005DB1050017
:1020A80074B1050030B5054687B008461946114B8E
:1020B800D3E8AF4FD4B100240F4BADF80A001C6031
:1020C8000E4B0DF10E00019340F20113ADF80C20F8
:1020D800ADF8083014F0A8F829460DF1120014F0F4
:1020E800A3F8122101A8FFF727FF0446044B1C7030
:1020F80007B030BD9CB3032074B30320A55A341233
:1021080064FA0420F8B5094E044633780D4663B1E5
:10211800074F0A460146386807F05EFA29463860D4
:102128002046FFF709FF00B93070F8BD64FA0420B3
:1021380074B3032013B5074C23784BB1064B01A8A1
:10214800196814F071F80421FFF7F6FE00232370D4
:1021580002B010BD64FA042074B303202DE9F04FD7
:1021680087B000AF0D461C46EA46D7F848903E4B6C
:10217800D3E8AF3F002B48D04E4640F20123FF2E54
:1021880028BFFF26014607F10A003B8114F04CF8EE
:10219800B7F840300F2107F10800FD813A827C82B0
:1021A800BB82BE7515F06AFD15235E43F31D23F04F
:1021B8000703ADEB030D8046EB466C467D6C0DEBDB
:1021C8000602944205F1180524D1B9F1000F05D093
:1021D80040463246594607F0FFF98046234B042112
:1021E80038463B60FFF7A8FE78B10F2107F10800D9
:1021F800FFF7A2FE48B1B9F1000F2DD14146381DB5
:1022080014F012F80421FFF797FED5461C37BD4697
:10221800BDE8F08F204655F8181C14F005F8201D6D
:1022280055F8141C14F000F804F1080055F8101CB7
:1022380013F0FAFF04F10C0055F80C1C13F0F4FF2E
:1022480004F1100055F8081C13F0EEFF15F8043CD3
:10225800153404F8013CB4E731465846FFF76CFEE4
:102268000028CBD1D1E700BF9CB30320A55A341274
:10227800014B00204B60704778020020416B0248F8
:10228800443117F064BA00BF408E0320F0B591B016
:102298000DF10703049301230324054604AACDE99D
:1022A80006230DF10F02CDE90A23CDE90C23CDE970
:1022B8000E2301F07F0105930AAB8DF807100893F0
:1022C8000994061D2868836831461F6806AA08AB6A
:1022D800B847C0B218B99DF80F0011B0F0BD05207D
:1022E800013C13F0EAFF14F0FF04EBD19DF807302E
:1022F80003480121034A14F000FD4FF0FF30ECE7DA
:1023080094BA0100AFB10500F0B58BB00DF10F0321
:10231800069301238DF80E200DF10E02CDE9082356
:10232800079306AB049302230546032461F07F015B
:102338008DF80F100593061D2868836831461F68BD
:1023480004AA0023B84790B10520013C13F0B5FF5B
:1023580014F0FF04F0D19DF80E309DF80F200548C9
:1023680000920121044A14F0D2FC4FF0FF300BB068
:10237800F0BD00BF94BA0100CCB105002DE9F74FBC
:10238800DFF814914D6880464D450E4607690DD01B
:10239800424A95420AD0424A954207D0414A012111
:1023A800414814F0A1FC6FF085045CE03B1D182245
:1023B80031461846019318F0F0FA0446002852D026
:1023C8004FF0000A394A3489B6F80CC0116809B9C7
:1023D800374AE4E75068A0425AD1D068604557D1DF
:1023E8008D4255D1D8F804B00321584613F096FF12
:1023F8002A4A044695423AD1012220215846FFF73D
:1024080083FF1E210443584613F088FF40EA04095D
:102418000923BAFBF3F3D8F80450264A03EBC303A5
:10242800AAEB03030321284612F803A013F076FF52
:102438005246044621212846FFF766FF0A218246B4
:10244800284613F06BFF44EA090444EA0A040443EB
:1024580009D10FCE019D0FC596E8030085E803005A
:10246800FB685B007B61204603B0BDE8F08F4D45FB
:1024780001D10222C1E70A4A954201D10322BCE7F1
:1024880001210D4A084814F02FFC6FF08509BFE7B9
:102498000AF1010A183299E7524742504A50454713
:1024A80059555956E9B1050094BA0100780200203F
:1024B8004BB20500960A002030B205002DE9F04F16
:1024C8008BB0D0F804A08046D0F8109002AFDAF8AC
:1024D800000017F094F8E0B9DAF800306C4688B0DC
:1024E8001B6802AAA249C2E905134FF4007393833B
:1024F800A04B42F8103F00234FF4E2519E4802F0EF
:102508004FFA6FF01206A54630462437BD46BDE89F
:10251800F08F9AF818302BB1DAF80C0017F06FF832
:102528000028D9D0484640F81C8B17F0C1F8002481
:1025380009F1300017F0BCF890480EF0B5FD4FF0E7
:10254800FF334FF480528E498C4800940EF0C6FD3C
:1025580022468C4909F1580017F0D5F909F14400D1
:102568008949C9F88C900EF009FDD8F81000D8F800
:10257800045090F8A03023B180F8A040583017F0EC
:10258800CEF9402207212846FFF7BEFE4FF47A70A5
:1025980013F093FED8F80440D8F81030FF212046F5
:1025A8007B6013F0BBFE402106462046FFF76EFE17
:1025B80010F0870F5FFA80FC0DD101216346734A42
:1025C8006D4814F09AFB6FF012060121704A6A48B0
:1025D80014F08AFB98E7ACF18103032BF3D8DFE80A
:1025E80003F0026385A66B4C6B4D0FCD0FC495E8C5
:1025F800030004F1C80E05F1080B84E80300BBE8EA
:102608000F00AEE80F009BE8030004F5D0742035F6
:102618008EE803000FCD0FC495E8030009225F4B35
:1026280084E803001A725E4B7A68C2F890307B68BF
:10263800D3F8903083F81BC0002EC6D141215046F4
:10264800FFF724FE00F03F00422189F8940050462D
:10265800FFF71CFE00F00F00432189F89500504653
:10266800FFF714FE00F01F00492189F89600504634
:10267800FFF70CFE60234B4A7B61C7E90323C023A5
:1026880089F8970007F108014046BB61FFF776FE1D
:10269800064600283FF438AF0121434A364814F073
:1026A80023FB6FF004062FE73A4C404D0FCD0FC4C3
:1026B80095E8030004F1C80E05F1080B84E803004F
:1026C800BBE80F00AEE80F009BE8030004F5D074E8
:1026D80020358EE803000FCD0FC495E803000822CB
:1026E8002E4B84E803001A72314B9DE7294C314D7B
:1026F8000FCD0FC495E8030004F1C80E05F1080BCF
:1027080084E80300BBE80F00AEE80F009BE8030075
:1027180004F5D07420358EE803000FCD0FC495E87A
:102728000300092284E803001C4B1A727FE7194C46
:102738001E4D0FCD0FC495E8030004F1C80E05F136
:10274800080B84E80300BBE80F00AEE80F009BE825
:10275800030004F5D07420358EE803000FCD0FC4B4
:1027680095E80300082284E803000C4BDDE700BF6E
:102778006BB205000300000194BA0100408E0320EB
:10278800B01A052085220000C127000083B2050089
:10279800A4B2050038030020E0BB0100960A00201F
:1027A8001805002052474250C9B2050028BC010054
:1027B8003405002070BC01002DE9F04706468CB0B6
:1027C8004FF0FF324FF0FF3328380DF0F5FF044685
:1027D800002800F08C80B36D002B42D156F8443CA1
:1027E80080225F6807213846D3F81080FFF78CFDF8
:1027F800032204213846FFF787FD45213846FFF7B5
:1028080045FD462181463846FFF740FD472182466F
:102818003846FFF73BFD054602202D0413F04DFD19
:1028280045EA0A25236945EA0905B5EB430FE4D3D0
:10283800D8E904325343012288F898202D4AC8F871
:102848009C30136017F017F84FF47A75A0FB050752
:10285800002347F6122205FB0171FEF7E7FA264B23
:10286800186056F8443C27691D695968D5F89C30AA
:102878003C229F4228BF1F4695F89830ADF80420A7
:10288800002B14BF0223012301AACDE90223CDE9BD
:102898000823A36802A8CDE90A3708AB0490069379
:1028A800012002230590079351F8040B836804AABA
:1028B800D3F8008006ABC04750B9D5F89C30DB1B75
:1028C800C5F89C30676195F898300BB185F8980089
:1028D80031460A4816F03BFF2146074BA6F1140083
:1028E8001B68A3610CB0BDE8F04716F0EABE0CB057
:1028F800BDE8F087A4B30320A0B30320408E0320D3
:10290800F8B50F4600293BD006680122304613F07F
:1029180061FD01460446304613F024FDC3070DD47B
:10292800AF23184A1849194813F062FF3946184866
:1029380013F05EFFAF21134813F051FF21463046D4
:1029480013F026FD251829460022304613F00AFD0B
:102958002D1AAC420BD0B7230A4A0E490B4813F084
:1029680047FF39460C4813F043FFB721E3E72146F8
:10297800304613F013FD2146BDE8F84013F048BE79
:10298800F8BD00BF08B305002BB305006E3C03007B
:102998003CB3050074B305009AB305002DE9F8436C
:1029A80006681446B5684A1EB5F5004F34BF0423BF
:1029B80008230A400F4610D0C1F1000909EA0109AD
:1029C8004B4502F1FF3128BF4B4611420CD1174647
:1029D800DCB900252846BDE8F883994213D821467A
:1029E800BDE8F84313F056BE34494FF4A673344A91
:1029F800344813F0FDFE344813F0FAFE4FF4A67184
:102A08002F4813F0ECFE9146E2E7B5F5004F2CBFD6
:102A180008200420FB1AE10804F0070201EBD301A7
:102A2800073203F007031344034401EBD301A9421F
:102A380028BF2946304613F02BFD80460028C8D011
:102A4800B36809EBC005B3F5004F34BF042308236E
:102A58001D4435447B1E1D44B5FBF7F57D43A5EBAE
:102A680009052946304613F0B5FC2C44073424F0F8
:102A78000704A41B804507464FEAE40408D202462F
:102A88004146304613F03DFD4146304613F07EFD89
:102A98003946304613F07CFC3844844208D2394623
:102AA8003046224613F02DFD2146304613F06EFDC8
:102AB80001223946304613F071FC8BE7D6B3050086
:102AC80008B305006E3C0300F1B30500B2F5802F92
:102AD8002DE9F04110D2042A28D8454940F21A239A
:102AE800444A454813F084FE444813F081FE40F2FE
:102AF8001A21404813F073FE0823D21ACC1D114442
:102B080024F0070421F00701091B17294FEAD10611
:102B18000ED83B4940F22323364A374813F068FE63
:102B2800364813F065FE40F22321E2E70423E4E788
:102B38000025046031462046A660E56013F054FC89
:102B4800B6F5004F2CBF08230423421D920008331A
:102B5800D11DDB0803EBD103B3424FEAD10739D8C3
:102B680001302946A2F1100204F11000B8BF2A462C
:102B780017F074FD3A462946204613F027FC2B46E9
:102B88002A462946204613F0F8FBA6EB07082046FC
:102B98002946012213F002FC4246394613F016FC7E
:102BA8003B462A463946204613F0E7FB3146204685
:102BB80013F00CFC43462A463146204613F0DDFB51
:102BC80031462046012213F0E9FB3946BDE8F041C1
:102BD80013F0DCBC0B494FF40E73064A064813F099
:102BE80007FE064813F004FE4FF40E7181E700BF9C
:102BF8000EB4050008B305006E3C03002FB40500B1
:102C080048B4050071B405002DE9F04F91B0009368
:102C180002F004030193C2F3C20301330493830750
:102C280005460E46DDF86890029240F0FC81041DCE
:102C380030B1072909D86FF01B0011B0BDE8F08F3B
:102C480001F007063444C6F108064FF000084FF0BB
:102C5800040B009B4746591E4FF0FF324346DA46A5
:102C6800CDF80C800DB1009820600498002800F37E
:102C7800DF809B48DDF800C0844503D3994884452C
:102C8800C0F0D680DDF808C0A4EB050E1CF0020FDA
:102C98004FEA9E0000F0E7804FF0000CD1E07A2860
:102CA80062D84B280FD847285ED829282DD8252840
:102CB80059D059D820287DD0A0F12309D9F1000393
:102CC80043EB090376E04C382E284DD8DFE800F0B6
:102CD800724C4C4C4C4C4C4C4C4C4C4C4E4C4C4C04
:102CE8004C4C4C4C4C5C4C4E4E5C5C5C724E6F4C8D
:102CF800724C184E184C4C817E4E4C4C4E4C7E00FB
:102D0800002000234FF0040B3CE04FF0010E2A385E
:102D1800C0B20EFA00F04FF6DA7E10EA0E0F49D173
:102D280010F0625E30D110F0010343D07046013CD0
:102D38005C44B4FBFBF40BFB04F4002D5ED0AAEB5F
:102D4800050EA644B6453FF676AF002868D1BAF11D
:102D5800040F43D1E14659F8040B2060CC464FF0EC
:102D6800040A043426E0013A002323E011F8013C68
:102D78006C2B30D1002011F8023C6C2B0346C1D1DA
:102D88004FF0080BDA46D2E70CF1070929F0070CD7
:102D9800073424F00704FCE802AB35B10598204459
:102DA800B0423FF648AFC4E900AB002308344FF007
:102DB800080BDA4611F8010F002800F0BC80002B40
:102DC8007FF46DAF2528F5D1012301324FF0040BB4
:102DD800EFE7184695E700200346A8E7BAF1080F81
:102DE80040F09B800CF1070929F0070CFCE8029AD7
:102DF800C4E9009A4FF0080A0834DBE780B9BAF151
:102E0800040F02D10CF10409A8E7BAF1080F40F049
:102E180084800CF1070929F0070909F1080CE9E792
:102E2800E14604980138049059F8040B009019E71A
:102E38000298800748D54FF0010CA4EB050E4FEA25
:102E48009E00BEF5007F1DD327494FF41F73274A04
:102E5800274813F0CDFC274813F0CAFC4FF41F7124
:102E6800224813F0BCFC0F2F0ED8002D46D007F1D6
:102E7800400CEC440CF8200C0CF8102C0398013092
:102E8800039020E00F2F0CD9174940F28123174AED
:102E9800174813F0ADFC184813F0AAFC40F2812142
:102EA800DEE7BDB107F1400EEE44C0B20EF8200CCB
:102EB8000EF8102CBCF1000FE0D060F07F000EF887
:102EC800200C08F101080137C5F10800CC4604348C
:102ED80005906FE7BCF1000F10D00136F3E700BF93
:102EE80010AE010038F20500CDE405009CB40500E1
:102EF8006E3C0300CAB40500EBB405000198023625
:102F08000028E0D10098CDE906310592FDF7B2FF1F
:102F1800DDE90631059A0644D5E740F2C623434A5F
:102F28004349444813F064FC5146434813F060FC9D
:102F380040F2C62194E7631BB3F5806F0CD33C497C
:102F480040F2D223394A3B4813F052FC3B4813F075
:102F58004FFC40F2D22183E71DB9A6F10804E0181E
:102F68006BE6019A9B0828602B709DF80C30C2B163
:102F7800EB7085F80280B8F1000F05D0002208A890
:102F8800C5F1010C97420ED14FF0000AC5F10103BB
:102F98000DF1200902930DF1300B574512D1601B3A
:102FA8004BE66B70E5E710F8013B190608D50CEB0A
:102FB800040EB64503F07F033FF63DAE04F8013B2F
:102FC8000132DFE7B8F1000F03D099F90020002A99
:102FD80017DB019BD3B11AF80B2004F8012B002250
:102FE800029B18191044B0423FF625AE99F800002C
:102FF800009904F8010B2046039217F022FB039A6C
:1030080014440AF1010A09F10109C6E799F80020F8
:1030180055F822300093019B009845F82230FDF7BF
:1030280029FF421CDCE76FF00D0006E69CB40500A2
:10303800CDE405006E3C030005B505001AB5050092
:103048002DE9F04F97B000AF89460446D7F880B015
:10305800FA623B6258B9A94940F29933A84AA9488B
:1030680013F0C6FB40F29931A54813F0B8FBCBF337
:10307800C00390F802A07B6141B9457800780AEB5B
:10308800800020444D4517D8A0EB0409E378FB6184
:10309800BAF1000F02D01BF0010F16D1FB6953BB28
:1030A800FB6A1BB1494620463A6A98474D4628466E
:1030B8005C37BD46BDE8F08F461C3046FDF7DAFEAA
:1030C8000130304409F10109DCE7626823787A624B
:1030D800FA6A9900B96104EB8301002A40F0028181
:1030E8000E464FF000084D4601EB0A094E454CD1FB
:1030F80001EB0A0610E01BF0020FD1D023789A00EA
:10310800BA61626804EB83017A62FA6A002A77D1AD
:103118004D46904601EB0A061BF0050F0CBF022333
:103128000123FB62FB6906EB430A0BF00203BB6257
:103138005645BCD016F8021B16F8013C54F82390EB
:10314800714B994502D3714B994536D37B69002B56
:1031580040D0786A13F00DFB00283BD0E9468AB0CE
:103168006A466B4B53617B6AC2E906314FF40073C0
:103178001384684B42F8103F00234FF412516648FD
:1031880001F00EFC023DCD46D2E716F8013BF9628C
:1031980054F82300FDF76EFED7F88430F96A013041
:1031A8004BB1D7F8883098453EBFD7F8843023F81C
:1031B800180008F10108054498E77B6923B1786A8B
:1031C80013F0D7FA0028C9D11BF0010F05D1FB6A0B
:1031D800ED1AADE7BB6A002BAAD04846FDF74AFEB8
:1031E800D7F8843053B1D7F8883098453FBFD7F81F
:1031F8008420431C22F8183008F10108054497E799
:10320800BAF1000F74D01BF0040674D0D046002623
:1032180007F1480052463B61B96217F012FAB96AE1
:103228003B6901EB0A02BA62FA69F9695200FA606D
:10323800BA6A02EB41023A610BF00202BA60BA6A5A
:1032480039698A426AD162781BF0020F18BF0021DF
:103258007A6208BF4FEA5801B2181BF0010FD2B2C8
:1032680040F0E5801BF0040F14BF404600207B614E
:103278006270A070E17020463A6AB969FB6A9847A3
:10328800051EFFF614AF7B69414623707B6A3A6AD4
:103298006370FB6984F802A0E37007F14800FB6AD9
:1032A8009847B0F10008C0F2F680BB69A9EB0A01A3
:1032B800C91AFB683A6AC91AD7E90A039847002865
:1032C800C0F2EB804FF0000BA84408EB000507F1B3
:1032D800380AB345C0F0AD8000213A6A0846FB6A57
:1032E8009847E4E656464FF0000807F1380091E7A2
:1032F8005646D04695E7B04693E700BF31B505007E
:103308009CB405006E3C030010AE010038F20500C5
:103318004CB5050004000001A4BA0100BA6A12F80D
:10332800021B12F8015CBA6254F825005C4A90420C
:1033380002D35C4A904218D37A693AB1786A7B60C2
:1033480013F017FA7B6800287FF479AFBA68002A6F
:103358004CD00F2E40D9544940F24D43534A54485B
:1033680013F046FA40F24D417EE67A693AB1786A3E
:103378007B6013F0FEF97B6800287FF460AF1BF0D8
:10338800010F0BD00F2E27D9474940F24343474A34
:10339800474813F02DFA40F2434165E61BF0040F4D
:1033A8003FF44DAFB8F10F0F09D9424940F24643F7
:1033B8003E4A3F4813F01CFA40F2464154E608F1F1
:1033C800280207F1300008F1010102EB000808F8B3
:1033D800105C5FFA81F832E706F1280207F1300045
:1033E800711C161806F8205CCEB228E7B8F10F0F4A
:1033F80009D930494FF48A632C4A2D4813F0F8F95B
:103408004FF48A6130E608F1280207F1300C08F120
:103418000100944407F1580208F1020852FA80F0BA
:103428000CF8101C5FFA88F800F8105C07E7002019
:103438001DE71BF80A3054F8239087F83730D7F87F
:1034480084302BB3D7F888309B4521D2D7F8843005
:1034580033F81B8001213A6AFB6A07F13700984765
:1034680000281ADB0544B8F1000F06D14846FDF7DD
:1034780001FD00F101081FFA88F8414648463A6AFA
:10348800FB6A9847002808DB05440BF1010B20E78D
:103498004FF00008DEE7454609E6054607E600BFA7
:1034A80010AE010038F20500EFB505009CB4050028
:1034B8006E3C03000EB60500014B1860704700BF54
:1034C8005005002080B505460E46174698460EF072
:1034D80085FF034617F08EFCDFF83C90044649F858
:1034E8000030424639463046A8470C4B1B7873B922
:1034F8000B4940F246330B4A0B4813F079F90B4855
:1035080013F076F940F24631064813F068F954F89A
:10351800090002F0A1FA00BF08000000AE1A052059
:103528006AB605003FB605006E3C03007DB605008F
:1035380038B50D4604462022002117F08FF80022E6
:10354800EB68E361AB68A3612B6823626B68A262D6
:1035580063622A6923B1591E194208BF42F0010269
:1035680022610122002104F12C0016F0C3F848B1B1
:10357800054906482F23064A13F03AF92F21044833
:1035880013F02DF938BD00BFC5B605006E3C030029
:103598009FB605002DE9F04F002789B0CDE901233A
:1035A800436A04468B428846BA460597079754D320
:1035B80000F11406EFF31185202383F31288BFF37B
:1035C8006F8F3046A9460FF0E3F958B988234D4A62
:1035D8004D494E4813F00CF931464D4813F008F99F
:1035E800882163E030460FF0F7F9079A2AB1394687
:1035F800204613F0E7F90023079306A9204613F0A5
:1036080004F906998346414530D32268236A204647
:1036180013F8221003EB820A21F0030103F82210A9
:103628002168424613F015F9E3682060984218D0E3
:103638004FF0000B30460FF0B9F950B389F31188F9
:10364800BFF36F8F059929B1A2690AB12046904747
:1036580000230593BBF1000FACD1504609B0BDE87B
:10366800F08F236943F008032361E1E718B120468E
:1036780013F009F9DEE7DDE90132134339D003918C
:1036880016F075F80399A0BB9DBB30460FF08EF974
:1036980078B94FF49A731B4A1E491C4813F0A8F8CE
:1036A80031461D4813F0A4F84FF49A71154813F0E9
:1036B80096F885F31188BFF36F8F04F12C00DDE9CC
:1036C80001230DF083F98346EFF31189202383F357
:1036D8001288BFF36F8F30460FF05AF900283FF475
:1036E80075AFBBFA8BFB30460FF076F94FEA5B1BE0
:1036F800A0E7204607AB05AA276813F0E3F883463E
:1037080098E700BFCEB60500FBB605006E3C030087
:1037180010B7050026B705003DB705002DE9F041B3
:103728000446C36908460E46984704F1140507463F
:10373800EFF31188202383F31288BFF36F8F284695
:103748000FF026F968B988231A4A1B491B4813F059
:103758004FF829461A4813F04BF88821154813F0FA
:103768003EF828460FF038F933783A4643F001031B
:1037780033706168204613F06CF86060204613F0DF
:103788003CF928460FF012F968B94FF49A73094AC0
:103798000C490A4813F02CF829460B4813F028F86E
:1037A8004FF49A71DAE788F31188BFF36F8FBDE899
:1037B800F08100BFCEB60500FBB605006E3C0300E5
:1037C80010B7050026B705003DB705002DE9F047FD
:1037D8000446002700F11406EFF31188202383F331
:1037E8001288BFF36F8F30460FF0D2F8054668B9DC
:1037F80088233A4A3A493B4812F0FAFF31463A4898
:1038080012F0F6FF8821354812F0E9FF30460FF034
:10381800E3F82369A16813F0080F02D1636899429D
:1038280000D9636A5B1A002B41D0206A10F8213056
:1038380000EB810913F003023CD0022A04D150F8AE
:1038480021205FEA920A05D1DA0720D44846E369C5
:1038580098478246A1685246204612F0FAFF514620
:10386800A060204613F003F82F4630460FF09EF86C
:1038780010BB4FF49A73194A1C491A4812F0B8FF42
:1038880031461B4812F0B4FF4FF49A71BBE743F07E
:10389800020300F82130E3694846A568984729469D
:1038A8000246204612F0D5FF0025A060DDE71D4640
:1038B800A946DAE71546FBE788F31188BFF36F8F4F
:1038C800002D89D137B1B9F1000F03D104F12C00D3
:1038D8000CF0FEFF4846BDE8F08700BFCEB60500F5
:1038E800FBB605006E3C030010B7050026B70500BF
:1038F8003DB705002DE9F0410446C36908460D4669
:10390800984704F114060746EFF31188202383F340
:103918001288BFF36F8F30460FF03AF868B98823E2
:10392800274A2849284812F063FF3146274812F0F1
:103938005FFF8821224812F052FF30460FF04CF802
:103948002B786FF300032B7023699B0705D5E2687A
:10395800236A03EB82039D4222D12B786FF3410344
:103968002B70D4E90231994204D13A46204612F02C
:1039780070FFA0603946204612F079FF30460FF0FC
:1039880015F890B94FF49A730D4A11490E4812F080
:103998002FFF31460F4812F02BFF4FF49A71C9E7F9
:1039A8002B6867F39F032B60E8E788F31188BFF360
:1039B8006F8F04F12C00BDE8F0410CF089BF00BF07
:1039C800CEB60500FBB605006E3C030010B7050037
:1039D80026B705003DB7050070B5044600F114058B
:1039E800EFF31186202383F31288BFF36F8F2846E5
:1039F8000EF0CEFF68B988231A4A1B491B4812F0FB
:103A0800F7FE29461A4812F0F3FE8821154812F0ED
:103A1800E6FE28460EF0E0FF2369A06813F0080FC1
:103A280002D16368984213D9646A241A28460EF0B2
:103A3800BDFF78B94FF49A730A4A0E490B4812F041
:103A4800D7FE29460C4812F0D3FE4FF49A71DDE7F1
:103A58001C1AEBE786F31188BFF36F8F201E18BF7F
:103A6800012070BDCEB60500FBB605006E3C030014
:103A780010B7050026B705003DB705002DE9F84F3A
:103A88000446A38B08461907154612D4022803F0EA
:103A9800070165D1204612F0D8FF88B10138042803
:103AA80000F23781DFE810F05C0035018200D400B5
:103AB800040101280CBF43F0100143F02001A18349
:103AC800143420460EF072FF002840F09D819A4978
:103AD8004FF49A73994A9A4812F08AFE2146B1E047
:103AE80003F00702501F01281ED80020062A276865
:103AF800C4E9000014D13A4603E0E08B0130E083CA
:103B08001268002AF9D123F0070343F00202204685
:103B1800A28312F09AFF90B342F02002A2832EE013
:103B280023F007039AB2F2E7042A33D123F00703FC
:103B38009AB22046A28312F088FF10B142F0200208
:103B4800A283A38B03F00709894540F0EC80A18B81
:103B5800CA0640F1508121F01003A38301F0070148
:103B6800D4F81880A38BB8F1000FB9DA00222768BF
:103B780023F00703C4E9002243F00103A383A38BC6
:103B880003F00709894540F0CF80002FDFD00026D9
:103B9800B24644E06B4940F21B136B4A684812F086
:103BA80027FE40F21B11684812F019FE49B1674917
:103BB8004FF4AB73644A624812F01AFE4FF4AB71CB
:103BC800F1E723684BB9624940F257135E4A5C48F3
:103BD80012F00EFE40F25711E5E723691E684EB950
:103BE8005C494FF4AD73584A554812F001FE4FF442
:103BF800AD71D8E70F4688464FF00609A38B23F02E
:103C0800070343F006039BB2A383A268002A40F08F
:103C18008D80002F40F08D80002E98D0BA4643F05A
:103C2800080304F1140B5846A3830EF0BFFE0028C6
:103C380040F09A8040494FF49A73404A404812F045
:103C4800D7FD5946444812F0D3FD4FF49A71ADE0C0
:103C5800022909D0414940F25D133B4A384812F025
:103C6800C7FD40F25D119EE7E78B4FB13C494FF429
:103C7800AF73354A324812F0BBFD4FF4AF7192E78B
:103C880023695E684EB9334940F261132E4A2C48C5
:103C980012F0AEFD40F2611185E7A38BB84623F020
:103CA800070343F004039BB24FF00409A383ACE776
:103CB800012909D02B494FF4B273234A204812F046
:103CC80097FD4FF4B2716EE723684BB9204940F273
:103CD80065131D4A1A4812F08BFD40F2651162E720
:103CE80023699E684EB91B494FF4B473164A1448A9
:103CF80012F07EFD4FF4B47155E70027A38BB84648
:103D080023F0070343F005039BB24FF00509A38393
:103D18007BE70C4940F26B130B4A094812F068FD27
:103D280040F26B113FE7002700266EE74FF0010ACB
:103D380075E7924673E700BF26B70500CEB60500C3
:103D48006E3C0300CDE405005DB7050082B70500B1
:103D58008EB70500B1B705003DB70500C8B7050027
:103D6800DEB70500EDB7050085F31188BFF36F8F47
:103D7800BAF1000F1CD177BB16B120462549B047D0
:103D8800EFF31185202383F31288BFF36F8F584612
:103D98000EF0FEFD38BB88231F4A2049204812F048
:103DA80027FD59461F4812F023FD88211A48FBE6D3
:103DB800A1680029DFD00D680029DCD043464A46B7
:103DC8002046D1F804A0D0471DB12B6829461D46CE
:103DD800F2E72B46FAE7394643464A4620463F680B
:103DE80012F05FFEC7E758460EF0F6FDA38B23F0EE
:103DF8000803A383ABE68B067FF562AE21F02003B0
:103E0800A38301F0070145E685F31188BFF36F8F9F
:103E1800BDE8F88F313E0000CEB60500FBB60500C0
:103E28006E3C030010B70500F8B504460D4600F1D6
:103E38001406EFF31187202383F31288BFF36F8FE3
:103E480030460EF0A5FD68B988230C4A0C490D4888
:103E580012F0CEFC31460C4812F0CAFC8821074803
:103E680012F0BDFC30460EF0B7FDA5613A4620467B
:103E7800BDE8F8400121FFF701BE00BFCEB605003E
:103E8800FBB605006E3C030010B705002DE9F047AE
:103E980004460F4612F0F5FD051E68DB04F114090F
:103EA800EFF3118A202383F31288BFF36F8F4846FC
:103EB8000EF06EFD804660B98823384A3849394883
:103EC80012F096FC4946384812F092FC8821334893
:103ED80042E048460EF080FD4FF6FF72E38BA68B5A
:103EE800934206F0070645D0022E15D13546013318
:103EF800E38348460EF05AFD002841D14FF49A73E7
:103F0800264A2A49274812F073FC4946284812F0E5
:103F18006FFC4FF49A71DAE7062E13D8DFE806F043
:103F2800092D1212090409006FF085054FF00008E9
:103F3800DFE700233B60636883B9C4E9007786B193
:103F48003546F3E71B4917484FF4E4731A4A12F051
:103F58004FFC4FF4E471184812F041FC1F60676091
:103F6800EDE7524602212046FFF788FD35462846F0
:103F7800BDE8F0876FF00A05D8E76FF00405D5E7CC
:103F88008AF31188BFF36F8FB8F1000FEFD00023C9
:103F980032463946204612F084FDE8E7CEB60500E1
:103FA800FBB605006E3C030010B7050026B70500F8
:103FB8003DB70500EDB705005DB70500F8B5054646
:103FC80000F11406EFF31187202383F31288BFF35F
:103FD8006F8F30460EF0DCFC60B98823254A2649ED
:103FE800264812F005FC3146254812F001FC8821CC
:103FF80020482BE030460EF0EFFCAC8B04F00704B1
:10400800022C17D0012C0CBF6FF004046FF085044C
:1040180030460EF0CBFC38BB4FF49A73154A194959
:10402800164812F0E5FB3146174812F0E1FB4FF451
:104038009A71DDE7EB8B5BB91449104840F2EF1336
:10404800134A12F0D5FB40F2EF11114812F0C7FBEA
:10405800013B9BB2EB83002BDAD13A462146284636
:10406800FFF70CFD2046F8BD87F31188BFF36F8F6B
:10407800F8E700BFCEB60500FBB605006E3C0300AE
:1040880010B7050026B705003DB7050003B80500C1
:104098005DB705002DE9F0410F460546002850D0D0
:1040A80000294ED000F11406EFF31188202383F382
:1040B8001288BFF36F8F30460EF06AFC60B9882310
:1040C800214A2249224812F093FB3146214812F036
:1040D8008FFB88211C4817E030460EF07DFC3946DE
:1040E8002846AC8B12F096FC80B104F00704231F1D
:1040F800022B0DD91849164840F22D23174A12F001
:1041080077FB40F22D21154812F069FB6FF0770418
:1041180030460EF04BFC68B94FF49A730A4A1049BE
:104128000B4812F065FB31460E4812F061FB4FF464
:104138009A71CFE788F31188BFF36F8F2046BDE8E7
:10414800F0816FF01504F9E7CEB60500FBB605005F
:104158006E3C030010B7050011B805005DB70500F7
:1041680026B705003DB7050008B54268034602F0CA
:104178000302032A816002D02AB1002000E000680F
:1041880000225A6008BD054905484523054A12F032
:104198002FFB4521034812F022FB00BFCDE40500A8
:1041A8006E3C030088B805002DE9F34106460F462A
:1041B80015464FF000082A46304601A912F0BFFC08
:1041C800044640B102463946019816F03AFA2D1BCA
:1041D800A0442744EFD142463046311D12F0CDFCB1
:1041E80048B1074907484823074A12F001FB48210C
:1041F800054812F0F4FA404602B0BDE8F08100BF6D
:10420800C5B605006E3C0300AEB805002DE9F341C4
:1042180007460E4615464FF000082A46384601A9BB
:1042280012F09DFC044648B12EB102460199304671
:1042380016F007FA26442D1BA044EED14246384614
:1042480007F1100112F099FC48B1074907486323A8
:10425800074A12F0CDFA6321054812F0C0FA404629
:1042680002B0BDE8F08100BFC5B605006E3C030092
:10427800AEB8050030B5002289B00F490F4815F0D7
:1042880042FB002200230024CDE906230E230C4D17
:10429800CDE903344FF400622846CDE90144094BC7
:1042A800094900940DF02EF90849284615F065FAD9
:1042B800204609B030BD00BF214400008893032088
:1042C800F08E032061470000B02A0520D9B8050008
:1042D8002DE9F047044607464FF00109DFF8508002
:1042E80014B93846BDE8F08794FAA4F5B5FA85F50F
:1042F80009FA05F32E0108EB05156FEA030A24EA0B
:1043080003042B7B002BEBD058F806301B694BB904
:104318004644736804222846196807EA0A0712F017
:1043280073FCDDE7284698470028D9D1F0E700BF9D
:10433800C4BB01002DE9F047DFF8BC902F4C804644
:10434800A9EB04038F2B0F460BD92D494FF4A67305
:104358002C4A2D4812F04CFA4FF4A671294812F055
:104368003EFA2A4812F034FC064678B3002528465F
:10437800BDE8F087237B83B12368DB680BB1204657
:104388009847636883F806A023681B69B3B9636814
:1043980004222046196812F037FC013610344C45C7
:1043A80018D91B494FF4AC73164A174812F020FA73
:1043B800184812F01DFA4FF4AC71CFE72046984721
:1043C8000028E4D00AFA06F31D43E6E705464FF055
:1043D800010AE4E7CED3B8F1000FC8D0002DC5D04C
:1043E8002846FFF775FF0546002FF7D0002140F259
:1043F80039100DF05FFFF1E7D4BB0100C4BB010029
:104408000EB90500E1B805006E3C0300BCB30320FB
:104418003EB905005FB9050001480CF059BA00BF64
:10442800500C0020014B53F82000704770330300F4
:1044380008B5034608462BB1044A136000F0C8FDCE
:10444800002008BD6FF01500FBE700BF54050020F1
:1044580010B5044C237813B903480CF039FA01233A
:10446800237010BD651A0520500C002010B50446B5
:10447800094812F0ADFB3CB1084BD3E8EF1F0139F6
:10448800C3E8E21F002AF8D1054815F048FABDE84C
:10449800104004480CF01CBAB4B30320B8B303208E
:1044A80088930320500C002000200146034BD3E8DA
:1044B800EF0FC3E8E21F002AF9D17047B4B3032015
:1044C80070B5FFF7F1FF05460F4C104EB44219D9ED
:1044D8000F494FF403730F4A0F4812F089F90F4838
:1044E80012F086F94FF403710A4812F078F96368FC
:1044F8005B792BB123685B6813B12946204698473E
:104508001034E3E7F3D370BDC4BB0100D4BB010092
:104518003EB90500E1B805006E3C03005FB905002F
:1045280010B5044C04492046FFF702F8034B1C6001
:1045380010BD00BF140B00205C330300A8B3032098
:104548000023154A10B51370144A15491360154A0B
:1045580015481360FFF76CFFFFF7E2FF134B144990
:1045680018468B4215D9134940F22713124A1348AB
:1045780012F03EF9124812F03BF940F227110E48AA
:1045880012F02DF91A1A5C681211013222711033D7
:10459800E7E7F7D310BD00BF661A0520B4B30320C0
:1045A80040420F00B8B30320D56B0100C4BB010023
:1045B800D4BB01003EB90500E1B805006E3C03001C
:1045C8005FB905000146002200230148FEF7E2BF5B
:1045D800140B00200148FFF7F9B800BF140B0020A6
:1045E800024B01461868FFF785B900BFA8B303203E
:1045F8000148FFF7F1B900BF140B002070B52F4B2D
:104608001878002859D0FFF7E5FF0546002844D15F
:104618002B4B2C4C1B68002B19DD15F02CF94FF493
:104628007A75A0FB050647F61222002305FB0161F7
:10463800FCF7FCFBD4E90032C01A40F2E93361EB25
:104648000201984271F1000101D3FFF739FFD4E963
:10465800003213F57A7342F10002C4E90032BDE872
:104668007040FFF7C5BF63685B7923B123682946AB
:1046780020461B6898471034B44211D912494FF4A8
:104688000073124A124812F0B3F8124812F0B0F848
:104698004FF400710D4812F0A2F80F4C0F4EEBE7E3
:1046A800E1D32846FFF79CFF0D4BD3E8EF1F0139F4
:1046B800C3E8E21F002AABD0F7E770BD651A0520F2
:1046C800B4B30320809303203EB90500E1B8050088
:1046D8006E3C03005FB90500C4BB0100D4BB0100F8
:1046E800B8B3032070B5154D297829BB0120FFF711
:1046F80021FE134C134EB44217D9134940F2C51387
:10470800124A134812F074F8124812F071F840F285
:10471800C5110E4812F063F863685B791BB1236812
:1047280020469B6898471034E5E7F5D3FFF766FF06
:104738000028FBD101232B7070BD00BF661A05202D
:10474800C4BB0100D4BB01003EB90500E1B80500B7
:104758006E3C03005FB905002DE9F047384B394F2F
:10476800FB1A1B090AD1384940F2A933374A38489D
:1047780012F03EF840F2A931344819E00021084609
:10478800FFF7D8FD0446A8B140F21B684FF00009B6
:10479800304B1B789BB9304940F246332F4A2C489E
:1047A80012F026F82E4812F023F840F246312B4832
:1047B80012F015F84FF0FF384FF0FF39E8E716F020
:1047C80019FB284B284A1B58136033B1274B1B6829
:1047D800092B02DD26480CF07BF80025DFF890A0B5
:1047E80044B12046FFF774FD044618B94FF0FF386E
:1047F8004FF0FF39FFF702FF064628B935B94246A0
:104808004B4650460CF0E2F83546E9E70C4D08E017
:10481800F5D22B689B691BB10022284611469847A0
:104828001035BD42F4D9134940F29D33074A084870
:1048380011F0DEFF104811F0DBFF40F29D319BE7DD
:10484800C4BB0100D4BB01007EB90500E1B8050076
:104858006E3C0300AE1A05206AB605003FB6050097
:104868007DB6050008000000B0B30320B8B30320EC
:10487800500C00203EB905005FB9050013B52C485F
:1048880012F0A6F92B4B1B78002B35D0EFF31184CF
:10489800202383F31288BFF36F8F27480EF078F830
:1048A80068B98823254A2649264811F0A1FF2249DC
:1048B800254811F09DFF8821204811F090FF1E48DF
:1048C8000EF08AF8FFF79AFE1B480EF06FF868B9E9
:1048D8004FF49A73194A1D491A4811F089FF16496D
:1048E8001B4811F085FF4FF49A71E5E784F31188AE
:1048F800BFF36F8F02B010BD164B1B68002BF9D0A9
:1049080050B9002200231448CDE9002347F61222AB
:1049180000230EF08FFBEDE70928EBD10E4814F0C9
:10492800FEFF0E4802B0BDE810400BF0D1BF00BF3B
:10493800B8B30320661A0520ACB30320CEB6050031
:10494800FBB605006E3C030010B7050026B705004E
:104958003DB70500B0B3032088930320500C002016
:1049680010B5064B04461B6898472146A0600448CA
:10497800FEF7D4FEBDE81040FFF780BF54050020C5
:10498800140B0020044A054B9B1AB1EBD30F34BF1C
:1049980052F831000020704794BA0100C4BB0100EE
:1049A8002DE9F04F8FB0C1F34A2804AF0D46914668
:1049B800B8607B600C0DB8F1000F68D000264FF08E
:1049C800040B4FF00A0A07F11403C7F80C80C7E973
:1049D80007667E620193CDF808B0CDF800A007F114
:1049E8001C0332464846F968FEF72AFBB0F5006F0B
:1049F80003461CD36C468AB0D9F8041004AB2C4883
:104A08001A46C3E9050140F2FF71D9614FF40071FC
:104A18001984284B42F8103F4FF412513346264868
:104A2800FFF7BEFFA5462C37BD46BDE8F08FC0F3A3
:104A38000A0804F11700184420F0070080083B60BA
:104A4800FFF7C0FD68F35325044640B33B6800F107
:104A58001001C7E9083607F11403F961CDE900A38D
:104A6800CDF808B04846154AF96807F11C03FEF767
:104A7800E7FA002813DA124912484FF4A373124ACE
:104A880011F0B6FE4FF4A3710F4811F0A8FE04F11F
:104A9800170020F007008008FFF794FD044668F32C
:104AA80053252A4620467B68B96812F0CDF8BAE744
:104AB800A7B9050004000001C4BA0100236C010075
:104AC80013BA05006E3C0300E6B905002DE9F04F66
:104AD80087B00446DDE9106ADDE912799346984605
:104AE800039127B33B46524610210020CDF8009091
:104AF800CDF81490FEF788F8051E0BDA264940F227
:104B08006513264A264811F073FE40F265112348C2
:104B180011F065FEB5F5006F0ADB40F2FF73022164
:104B2800204A214807B0BDE8F04F12F0E6B83D46EC
:104B380006F11700284420F007008008FFF742FD1F
:104B480004F007040BF0070BE40044EA8B1444EA72
:104B5800452444EA06540646A0B19FB13B46524656
:104B68002946CDF800901030FEF74EF8002809DAF3
:104B780009494FF4C473094A094811F039FE4FF442
:104B8800C471C4E7434622463046039907B0BDE8DE
:104B9800F04F12F059B800BF12BA0500E6B9050087
:104BA8006E3C03001CBA0500C4BA0100406820B17D
:104BB800034BC01A40F3CF0070474FF0FF307047E7
:104BC80094BA01000EB403B503AB53F8042B0146A5
:104BD8000448019301F022FB02B05DF804EB03B036
:104BE800704700BF0D4C0000CA0605D48B064CBFA9
:104BF80002490349FFF7E6BF704700BF09E7050010
:104C080054BA050038B54B6805461A68CB680C4697
:104C18009A4202D1084612F094F86368D3E8EF2F5D
:104C2800511CC3E8E01F0028F8D1A3689D546368AD
:104C38001A68E3689A4209D9054906487223064A60
:104C480011F0D6FD7221044811F0C9FD002038BDCD
:104C580086BA05006E3C030057BA05002DE9F04FEF
:104C680089B09B46149B9DF84CA00693159B04465F
:104C78000593169B0D469046179E0493BAF1000FB4
:104C880000F0AD80BAF1040F0BD9A34940F24D23CF
:104C9800A24AA34811F0ACFD40F24D219F4811F003
:104CA8009EFD06F48073079311F0ACFF06F002092D
:104CB800024600283FD020469A49FFF783FF07465F
:104CC800B9F1000F08D016F0440F36D12A46204615
:104CD8009549FFF777FF074406F0010353B1934B5B
:104CE800204653F82A20924B9249002A08BF1A46B8
:104CF800FFF768FF06F48073002B4AD006F008031C
:104D0800002B64D1B8F1000F67D0424620468A498B
:104D1800FFF758FF0546069B3D44002B6ED1049BC8
:104D2800002B40F08380F30700F1F08031462046E5
:104D3800FFF75AFFE4E00746C2E7804B18680028EF
:104D4800C9D07F4B4FF47A791B684FF03C0CB5FB08
:104D5800F3F5B5FBF0F14FF4616300FB115509FB66
:104D680005F5B1FBF3F2B5FBF0FE03FB121100FBF6
:104D78001E55B1FBFCF309FB05F5B5FBF0F50CFB83
:104D8800131120460091CDE901E56E49FFF71AFF9E
:104D9800A1E706F00803EBB16B4B204653F82A2035
:104DA8006A49FFF70FFF0546B8F1000F05D04246E4
:104DB80020466149FFF706FF0544BBF1000FAAD062
:104DC8005A4620466249FFF7FDFE0544A3E74FF027
:104DD800000BE1E706F00805E6E745469BE7BBF16F
:104DE800010F069B06D1DBB9049B002B00F08880DD
:104DF80000251BE0002BF7D0564812E05648224603
:104E0800069B564911F084FC00280CDA544940F2FC
:104E1800A723424A424811F0EBFC40F2A7213DE7A4
:104E28004D485546EBE7049B002B65D0DFF83481ED
:104E3800DFF83491049F3146102F204628BF1027F1
:104E48004FF0000BFFF7D0FE5D4542DC059B49465D
:104E580020461A78FFF7B6FE4FF0010B1BF0070F3C
:104E680003D141462046FFF7ADFE5F4538D9059B83
:104E78004946204613F80B20FFF7A4FE0BF1010B5F
:104E8800BBF1100FEAD14FF0000B20463749FFF76E
:104E980099FE5A46059B20469A5CA2F120015F299B
:104EA80028BF2E223249FFF78DFE0BF1010BBBF113
:104EB800100F1AD01BF0070F03D141462046FFF709
:104EC80081FE5F455A46E5D841462046FFF77AFEFF
:104ED800EBE741462046FFF775FE0BF1010BB3E700
:104EE80020462449FFF76EFEC8E7059B3B4405931F
:104EF800049BDB1B04939DD1BAF1000F7FF413AF21
:104F0800204609B0BDE8F04F11F01BBF2046084A03
:104F18000849FFF757FE09E7BBBA050057BA05006D
:104F28006E3C0300C6BA0500CABA05008033030008
:104F3800B6BA0500B5DA0500EFBA0500C4B3032018
:104F4800C0B30320D3BA050094330300F3BA0500B5
:104F5800F9BA0500656D01000D4C000025620000DE
:104F6800FEBA05000FBB050007BB050011BB050015
:104F780013BB05000DBB050042F20F7373B58B42DE
:104F880028BF0B4605680446052168460D4A0FF000
:104F98005DFE0646636828460B225B680A4911F0E5
:104FA800C2FE63683246694628465B6811F0BBFE5C
:104FB80063681B2228465B68044911F0B4FE02B0FE
:104FC80070BD00BF41CA050032BB050016BB050015
:104FD80000210123064A904206D8064A01B9012356
:104FE8001360054B18607047012140085B00F2E729
:104FF80040420F00C0B30320C4B30320F8B50D46E8
:105008000446064F4618B44201D12846F8BD14F8A4
:10501800011BBB6801485B689847F4E7A0AF010033
:1050280010B543681C68094814F0E9FA48B90849FA
:1050380008489923084A11F0DBFB9921064811F02A
:10504800CEFB23685B685C6010BD00BFA0AF0100A9
:105058009CBB05006E3C03005EBB0500014B036072
:1050680000207047DC33030010B5B9B190F93D203A
:10507800002A05DA0A4812F097F86FF0C90010BD47
:10508800182303FB020402FB033318448388228A93
:10509800E0685343A28A5A4315F0D3FA0020EEE79A
:1050A800D0BB050008B5B8B1036DC3B1C36DB3B1CA
:1050B800836CB3F5603F08D941684FF460320A4801
:1050C80012F072F86FF0110008BDC26C52B141685D
:1050D800064812F069F8F5E76FF0C900F4E76FF0D9
:1050E8001000F1E71046EFE7F7BB050041BC0500EB
:1050F8001FB5002301930393012369460F480293C8
:10510800FEF7C4FE48B10E49EA230E4A0E4811F0D4
:105118006FFBEA210B4811F062FB029B9B07FCD155
:10512800039B3BB10949F023064A074811F060FB8D
:10513800F021EFE705B05DF804FB00BF04B40320DD
:10514800FBBC0500AFBC05006E3C030003BD0500B9
:1051580008B5074A0121D2F80034002043F00103C2
:10516800C2F8003412F0E5F8024B186008BD00BF21
:105178000060055000B40320054A0021D2F800342D
:1051880023F00103C2F80034024B186801F048BC50
:105198000060055000B403204FF0FF324FF0FF339A
:1051A80001480BF013BC00BF400C002001480BF075
:1051B8008FBB00BF400C002001480BF06FBF00BF41
:1051C800F0B3032038B5164B1B7873B9154940F274
:1051D8004633154A154811F00BFB154811F008FB2A
:1051E80040F24631104811F0FAFA15F003FE114B5F
:1051F800114C1D582368AB4210D0236823B10F4BC4
:10520800D3F89030AB4209D0FFF772FF4FF0FF326E
:105218004FF0FF330A480BF0D9FB2560012038BD59
:10522800AE1A05206AB605003FB605006E3C0300BD
:105238007DB6050008000000ECB30320D0990320D8
:10524800300C002008B50A48FEF7B8FE15F0C0F883
:10525800084B38B1084AD2F890201A60BDE80840D7
:1052680015F0CEB818600548BDE808400BF030BB13
:1052780004B40320ECB30320D0990320300C0020A1
:10528800002208B5044B05481A60FEF797FEBDE8F2
:10529800084003480BF01CBBECB3032004B4032004
:1052A800300C002010B51049104811F010FC0028EF
:1052B80016DB0F490F480BF061FEFFF749FF0E4858
:1052C80014F078FE044648B902460121562000F041
:1052D8004FFC562000F01CFCFFF74EFF204610BD87
:1052E8004FF0FF34FAE700BFDC33030004B40320B7
:1052F80075710100F0B303200060055008B504483B
:1053080011F060FA034811F05DFA002008BD00BFF3
:1053180014BD050049BD050008B50348034A00212E
:10532800121A11F05BFF08BD980D0020B01A052075
:10533800074808B5074A0849121A11F051FFBDE895
:1053480008400648064A0749121A11F049BF00BF2B
:1053580060000020980D002038F205006000002051
:105368006000002038F205002DE9F04706460C469B
:1053780000AF002936D0D1E90012E9468AB06D465F
:10538800A3684FF0050AA8461F48C5E90723C5E9E1
:10539800050148F810AF002342464FF421511B483D
:1053A800FFF7FEFAD4E90312CD466369AD46184803
:1053B800C5E90723C5E90501C5F810A00023424641
:1053C8004FF421511148FFF7EBFACD46E36901216B
:1053D800104A0E4811F091FCA36901210E4A0B48AE
:1053E80011F08BFC012E07D1EFF305830B4A3146F0
:1053F8000648103B11F081FC214630460AF0BEF801
:10540800BD46BDE8F08700BF77BD050004BB0100BD
:10541800A6BD0500D5BD0500E4BD050012BE05000A
:1054280030BFFFF7FDBF00BF2DE9F04105460B4E29
:10543800DFF82C80324606EB0807CC1B20460949CA
:1054480015F0FFF8A01942460021083C15F006F9AE
:10545800C5F8804007F10800BDE8F08100000000B1
:1054680008000000D4BB0100054B5A699B689A42AA
:105478001FBF044A536843F080535360704700BF0E
:10548800B8BF032000ED00E070B5344C06460D4669
:105498003348344911F0B1FEA36AD9064DD53048D6
:1054A800314911F0AAFE1120A36A1A0704D52C4825
:1054B8002E4911F0A2FE1220284CA36A9B0712D590
:1054C8002B49274811F099FE636BA26A110609D58A
:1054D8000121284A224811F010FC1EB1A36A23F0CA
:1054E8008003A36213201D4CA36ADA0704D51C4865
:1054F800214911F082FE1420A36A9B0604D518489E
:105508001E4911F07AFE1520144B9A6AD60602D469
:105518009A6A940713D59B6AD90610D5184940F2A0
:105528002D13184A184811F063F9184811F060F95A
:1055380040F22D11134811F052F91020B4E7074B2F
:105548009A6A920642BF5A6A22F400525A629A6ACA
:1055580042F0FF029A6200232B7070BD00ED00E05C
:1055680004BB010025BE05003BBE05006EBE05005C
:1055780081BE050099BE0500AFBE0500CEBE050080
:105588002FBF0500FDBE05006E3C030079BF050076
:1055980010B5244C2449254811F02FFEA36A99011F
:1055A8003ED52248224911F028FE1E20A36ADA01BE
:1055B80004D51E481F4911F020FE1F20194CA36A6C
:1055C800DB0204D519481C4911F017FE0220A36A12
:1055D8001C0304D51548194911F00FFE2120114C60
:1055E800A36A590304D51148154911F006FE222073
:1055F800A36A9A0304D50D48124911F0FEFD232031
:10560800084CA36ADB0304D508480F4911F0F5FDDF
:105618002420A36A6FEA03436FEA1343A36210BD11
:105628001D20C3E700ED00E0DDBF050004BB01005D
:10563800F5BF050008C0050022C005004CC00500E4
:105648006AC005008FC00500A9C0050070B5294CC7
:1056580006460D462848294911F0CFFDA36AD9040A
:105668003CD52548264911F0C8FD1720A36A1A051C
:1056780004D52148234911F0C0FD18201D4CA36A08
:105688009B0512D51C48204911F0B7FDA36BA26AEF
:10569800100409D501211D4A174811F02EFB1EB12F
:1056A800A36A23F40043A3621920124CA36A590584
:1056B80004D51148164911F0A0FD1A20A36ADA058D
:1056C8000ED50D48134911F098FD1B20094A936A1D
:1056D80043F47F43936200232B7070BD1620C5E707
:1056E800A36A9B04F2D504480B4911F086FD1C20DF
:1056F800ECE700BF00ED00E004BB0100D4C00500EA
:10570800EAC005006EBE0500FBC0050014C1050017
:1057180029C1050044C10500CEBE0500F0B58BB017
:10572800784B04465868002600AFC0F3080386F398
:105738001188BFF36F8F02F07F45B5F17F4F07D116
:1057480002F00C05082D12D16F49704811F055FD73
:105758006F4940F214436F4A6F4811F049F86F4897
:1057680011F046F840F214416A4811F038F815076C
:105778004CBF0C460126002CEAD00022FA71DA1E32
:10578800092A00F29D80DFE802F0059396769B9B3C
:105798009B9B9B9962495D4811F02FFD0023594D51
:1057A800FB71EB6A9A0705D55E49584811F025FD4B
:1057B800002329E0EB6A002B01DA5B49F5E7EB6A85
:1057C8005B0068D55949514811F017FD6B69A2690A
:1057D80043F480736B61BFF34F8FBFF36F8F6B69B7
:1057E80032F8022C23F480736B61BFF34F8FBFF341
:1057F8006F8F4DF602739A4227D1236801214C4AD4
:10580800424811F07AFA2368FA79DAB907F10805FB
:1058180004F1200C2A4620686168083403C26445F4
:105828001546F7D17A6A002E66D0C2F3080121B96D
:105838006FEA52226FEA42227A62184607F108019B
:10584800FFF792FD2C37BD46F0BDAB6ADBB22BB13A
:105858000120F91DFFF718FE0346D5E7AB6A13F4DC
:105868007F4F04D00120F91DFFF7F0FEF4E7AB6A83
:10587800B3F5803F02D3FFF78BFEEDE72D4940F2E9
:10588800ED23244A244810F0B3FF2B4810F0B0FF52
:1058980040F2ED2168E727494FF43C731D4A1E4842
:1058A80010F0A6FF254810F0A3FF4FF43C715BE70A
:1058B8000020F91DCEE70020F91DD5E7204974E73F
:1058C800204A6D4610F4F87F8AB01F4918BF114668
:1058D8006A46103BD3614FF400731C4813841C4B79
:1058E800C2E9050142F8103F00234FF4115107485F
:1058F800FFF756F8AD465BE722F4FF7222F001028B
:105908009AE700BF00ED00E08AC1050004BB010072
:10591800B5C10500FDBE05006E3C0300C8C1050009
:1059280006C205001DC205003EC205004CC20500A6
:105938006BC20500CDE4050087C20500ABC20500B7
:10594800DBC2050071C105005CC10500FFC205008E
:1059580004000001064B5A6942F010025A615A6964
:1059680042F480625A615A6922F008025A6170470B
:1059780000ED00E0EFF30880EFF3098101B572460E
:10598800FFF7CCFE01BD00BF002080F31488BFF3F1
:105998006F8F002080F30A8880F30B880F4880F30C
:1059A800088807F02BFC00200D490860BFF34F8FD3
:1059B80000F02CF8202080F311880A484FF4006189
:1059C800401880F30988EFF314800221084380F31C
:1059D8001488BFF36F8F00F00BF90000C06E05202C
:1059E80094ED00E0805D0520002318460649D1F8B3
:1059F8009020C2F30722934200DB7047C1F8983029
:105A0800C1F8A0000133F6E700ED00E010B572B66A
:105A1800002484F31388FFF7E7FF23464FF0FF3095
:105A28000C4A03F120010133102B42F82100F8D170
:105A380000234FF0FF30074A03F160010133102BB8
:105A480042F82100F8D162B6BFF34F8FBFF36F8FD2
:105A580010BD00BF00E100E0084B9B6883420BD1FA
:105A6800EFF3058343B1064B5A6842F080525A60FF
:105A78005A6A22F400425A620CF0B6BCB8BF03203E
:105A880000ED00E016498A684FF030001044EFF34B
:105A9800098C80E8F01F202080F31288BFF36F8FF5
:105AA800104F4FF000664A698A603E60D2F8800065
:105AB8000D4C2060D2F884000023C2F8843080F3B3
:105AC800118802F1300090E8F01F8CF3098802F188
:105AD800000004B511F099FBBDE8044070470000D0
:105AE800B8BF032004ED00E024B403201EF0040F27
:105AF8000CBFEFF30880EFF30980816911F8021CED
:105B08000229FFD001B5724611F06CFB01BD00BF40
:105B180000B2002807DB01234109034A00F01F00F7
:105B2800834042F82130704700E100E000B20028CD
:105B38000CDB01220649430900F01F008240203394
:105B480041F82320BFF34F8FBFF36F8F704700BF1B
:105B580000E100E0054B420953F82220012300F040
:105B68001F0003FA00F01040704700BF00E100E09A
:105B780038B54B1C072B04460D460FD96B23104A2A
:105B88001049114810F034FE2946104807232246D0
:105B980010F02EFE6B210A4810F021FE00B20028FA
:105BA800ACBF00F160400A4A4FEA4313DBB2ABBF17
:105BB80000F5614000F00F0080F80033135438BD41
:105BC80012C3050049C305006E3C030064C3050009
:105BD80014ED00E0044B054A23F07F039360BFF304
:105BE8004F8FBFF36F8F70470000000000ED00E09B
:105BF80008B5FFF7EFFF074AD2F8883023F470039F
:105C0800C2F88830FFF788FBFFF792FB00F046F8F0
:105C180009F010FE00ED00E042F8203C009B0B4923
:105C280042F81C3C019B21F0010142F8183C029B00
:105C380042F8081C42F8143C4FF0807342F8043CC8
:105C48000023203A0265C0F884307047CD34000044
:105C580000B50D4B15469860D0F880200B4B0E46CA
:105C68001A60036F83F30B882C4686F3098800209B
:105C7800034B98472046002100220023014C20476F
:105C880021720100CD340000B8BF032024B40320E2
:105C98001022014B1A61704700ED00E0002320211B
:105CA8000448C2180133B3F5917F82F80013F8D184
:105CB800704700BF00E100E008B5EFF30583064A2E
:105CC800103B02EBC30152F8330049688847BDE82E
:105CD8000840FFF7C9BB00BF64B001001FB5094CFD
:105CE800094A23460121094800F012F900230393C9
:105CF800074B0121E41A01A80193029400F02CF942
:105D080004B010BD00FC072000000020E8330300A9
:105D1800980D002010B50C7A0B6804F01F0223F0D0
:105D28001F031A43CB68640923F01F03054943EA9C
:105D3800440343F00103C1F89800C1F89C20C1F85E
:105D4800A03010BD00ED00E010B50A4BD3F890303C
:105D5800C3F30723013B984208D901210346064AA9
:105D6800064810F0CAFF6FF0150010BDFFF7D2FF0C
:105D7800FBE700BF00ED00E0A8C30500ECBA010096
:105D88002DE9F04F8946144606464FF00008514D5C
:105D980085B0C84527DAD6F804A0BAF1000F44D078
:105DA800BAF11F0F17D91AF01F0F14D1D6F800B087
:105DB8001BF01F0F0FD1584611F051FA07460AEB96
:105DC8000B00013811F04BFA874210D06FF015071D
:105DD800414A3B4601E04346404A0121404810F011
:105DE8008CFF6FF01504204605B0BDE8F08F17F161
:105DF800160FEDD0BC42EBDDC5F89870D5F89C10B5
:105E0800C5F89870D5F8A03021F01F0143F01F0B9A
:105E1800D6E900321A44994202F1FF3A1DD1D3451E
:105E280007D13146F8B211F023FA08F101080C360F
:105E3800AFE73146C5F89870D5F89C3022F01F02BC
:105E480003F01F031343C5F89C30E0B211F010FAB9
:105E580010F1160FC5D0441CE7E7C5F89870D5F8BF
:105E6800A020013B23F01F0302F01F021343D34578
:105E78003146E0B2C5F8A030E8D011F0F9F910F1D8
:105E8800160FAED0C5F89870D5F89C209DF808304C
:105E98000BF1FF3B62F304038DF80830D5F8A0300E
:105EA8009DF808205B0863F347128DF80820D6E9AF
:105EB80000321344009323F01F035B44A3EB0A034F
:105EC800013023F01F036946C0B20393FFF73CFF7C
:105ED800BEE700BF00ED00E0F1C30500CEC305003A
:105EE800ECBA01000522044BC3F89420BFF34F8F8E
:105EF800BFF36F8F704700BF00ED00E0BFF35F8F07
:105F08000022024BC3F89420704700BF00ED00E068
:105F180038B50C4D0C462A78FFF732FF287016303A
